:020000040800F2
:10000000907A00202D0300085D180008831700086F
:1000100059180008CB0600082F2000080000000037
:100020000000000000000000000000006D02000859
:10003000CF06000800000000C90200084D1B0008A0
:100040004703000847030008470300084703000868
:100050004703000847030008470300084703000858
:100060004703000847030008470300084703000848
:100070004703000847030008470300084703000838
:100080004703000847030008470300084703000828
:100090004703000847030008470300084703000818
:1000A0004703000847030008470300084703000808
:1000B000391C0008470300084703000847030008ED
:1000C00047030008470300084703000847030008E8
:1000D00047030008470300084703000847030008D8
:1000E00047030008470300084703000847030008C8
:1000F00047030008470300084703000847030008B8
:1001000047030008470300084703000847030008A7
:100110004703000847030008470300084703000897
:100120004703000847030008470300084703000887
:100130004703000847030008470300084703000877
:100140004703000847030008470300084703000867
:100150004703000847030008470300084703000857
:100160004703000847030008470300084703000847
:100170004703000847030008470300080000000089
:100180004703000847030008470300084703000827
:100190004703000847030008470300084703000817
:1001A00047030008470300084703000800F002F86F
:1001B00000F04CF80AA090E8000C82448344AAF1B5
:1001C0000107DA4501D100F041F8AFF2090EBAE8B3
:1001D0000F0013F0010F18BFFB1A43F0010318477B
:1001E000E06F0000007000000A4410F8014B14F0AA
:1001F0000F0508BF10F8015B240908BF10F8014B78
:100200006D1E05D010F8013B6D1E01F8013BF9D1C0
:10021000641E03D0641E01F8015BFBD19142E4D35C
:10022000704700000023002400250026103A28BF54
:1002300078C1FBD8520728BF30C148BF0B60704758
:100240001FB506F016FF1FBD10B510BD00F008FA6F
:100250001146FFF7F5FF02F053FC00F026FA03B455
:10026000FFF7F2FF03BC00F029FA00002C4B1968DD
:100270000868B0E8F04F80F30988BFF36F8F4FF044
:10028000000080F3118870470000000008480068F3
:10029000006880F308884FF0000080F3148862B68D
:1002A00061B6BFF34F8FBFF36F8F00DF00BF00BF9A
:1002B00008ED00E0DFF80C00016841F47001016016
:1002C000704700BF88ED00E0EFF30980BFF36F8F48
:1002D000134B1A681EF0100F08BF20ED108A20E99A
:1002E000F04F106009B44FF0500080F31188BFF355
:1002F0004F8FBFF36F8F04F085FE4FF0000080F347
:10030000118809BC19680868B0E8F04F1EF0100F9A
:1003100008BFB0EC108A80F30988BFF36F8F704775
:1003200028000020EFF3058070470000094880474F
:1003300009480047FEE7FEE7FEE7FEE7FEE7FEE7C7
:10034000FEE7FEE7FEE7FEE704480549054A064BDF
:1003500070470000251C0008AD010008906A0020CD
:10036000907A0020907200209072002053EA020CD4
:1003700000F069802DE9F04B4FF00006002B1FBF05
:10038000B3FA83F503FA05F424FA05F65E4012BFCA
:100390001643B2FA82F502FA05F4C5F120051EBF34
:1003A00022FA05FC44EA0C04203556EA044C4FEAD4
:1003B000144418BF641C4FF000084FF0000990422D
:1003C00071EB030C39D3002919BFB1FA81F701FA97
:1003D00007F6B0FA80F700FA07F6C7F120071EBF4C
:1003E00020FA07FC46EA0C062037B6FBF4FCA7EB24
:1003F0000507103F07F01F0BCBF120060CFA0BFB93
:100400002CFA06F644BFB3460026202FA4BF5E4652
:100410004FF0000B5BEA060C08BF4FF0010B19EB25
:100420000B09ABFB027C48EB0608C01B06FB02CCA9
:100430000BFB03CC71EB0C01C1E70B4602464146B6
:100440004846BDE8F08B13B54FF000004FF00001B7
:10045000AFF30080BDE81C40704740EA010302464C
:1004600030B59B0710D14FF0013400E008C208C935
:100470001D1B9D4315EAC41FF8D013F0FF0102F8BD
:10048000011B0DD01B0AF8E711F8013B002B02F805
:10049000013B05D011F8013B002B02F8013BF3D1E1
:1004A00030BD032A40F2308010F0030C00F01580BC
:1004B00011F8013BBCF1020F624498BF11F801CB67
:1004C00000F8013B38BF11F8013BA2F1040298BFCC
:1004D00000F801CB38BF00F8013B11F0030300F036
:1004E0006280083AC0F0088051F8043B083A51F89D
:1004F00004CBA0E80810F5E7121D5CBF51F8043BDF
:1005000040F8043BAFF30080D20724BF11F8013B51
:1005100011F801CB48BF11F8012B24BF00F8013BB3
:1005200000F801CB48BF00F8012B704702F0FF0331
:1005300043EA032242EA024200F069B84FF00002A7
:1005400000B5134694469646203922BFA0E80C50C9
:10055000A0E80C50B1F12001BFF4F7AF090728BFA4
:10056000A0E80C5048BF0CC05DF804EB890028BF20
:1005700040F8042B08BF704748BF20F8022B11F049
:10058000804F18BF00F8012B7047704770477047C5
:1005900010B500F05DF8006810BD10B5044600F01D
:1005A00057F8046010BD10B5203AC0F00B80B1E8D8
:1005B0001850203AA0E81850B1E81850A0E8185098
:1005C000BFF4F5AF5FEA027C24BFB1E81850A0E8A1
:1005D000185044BF18C918C0BDE810405FEA827CBB
:1005E00024BF51F8043B40F8043B08BF7047D207D2
:1005F00028BF31F8023B48BF11F8012B28BF20F873
:10060000023B48BF00F8012B70474FF0000204295D
:10061000C0F0128010F0030C3FF492AFCCF1040C48
:10062000BCF1020F18BF00F8012BA8BF20F8022B65
:10063000A1EB0C01FFF784BF5FEAC17C24BF00F887
:10064000012B00F8012B48BF00F8012B7047000078
:10065000004870472C6A0020004870472C6A002030
:100660007546FFF7F9FFAE4605006946534620F090
:100670000700854618B020B5FFF766FEBDE82040AC
:100680004FF000064FF000074FF000084FF0000B4E
:1006900021F00701AC46ACE8C009ACE8C009ACE801
:1006A000C009ACE8C0098D46704710B50446AFF3E9
:1006B00000802046BDE81040FFF7D1BD0149182059
:1006C000ABBEFEE726000200704700BFFEE77047A2
:1006D00072B600BFFEE70000F8B502460B460025E3
:1006E000002400200021DFE0012606FA01F51E6843
:1006F00006EA0504AC4274D11E7906F00306012E09
:1007000004D01E7906F00306022E13D190684F0024
:100710000326BE40B0434F00DE68BE4030439060C9
:10072000506801268E40B0431E79C6F300168E40F5
:10073000304350601E7906F00306032E09D0D068BE
:100740004F000326BE40B0434F009E68BE4030437A
:10075000D0601E7906F00306022E13D1CF0802F1F5
:10076000200656F827004E07F70E0F26BE40B0436E
:100770004F07FF0E1E69BE403043CF0802F120062E
:1007800046F8270010684F000326BE40B0431E798C
:1007900006F003064F00BE40304310605E6806F46A
:1007A0004036002E7FD000BF00260096404E3668AF
:1007B00046F480463E4F3E603E46366806F480462C
:1007C000009600BF00BF3B4E8F0856F827008E07EB
:1007D000370F0F26BE40B043374EB24202D100263B
:1007E0002EE060E0354EB24201D1012628E0344EC1
:1007F000B24201D1022623E0324EB24201D1032699
:100800001EE0314EB24201D1042619E02F4EB24211
:1008100001D1052614E02E4EB24201D106260FE08A
:100820002C4EB24201D107260AE02B4EB24201D132
:10083000082605E0294EB24201D1092600E00A2629
:100840008F073F0FBE4030431A4E8F0846F82700EF
:10085000234E3068A0435E6806F4803606B120431C
:100860001F4E3060361D3068A0435E6806F40036C7
:1008700006B120431A4E361D3060361D3068A04345
:100880005E6806F4801606B12043154E08363060C7
:10089000361D3068A0435E6806F4001606B120439A
:1008A0000F4E0C363060491C1029FFF41DAFF8BD07
:1008B0004438024008380140000002400004024071
:1008C00000080240000C02400010024000140240E8
:1008D00000180240001C0240002002400024024098
:1008E000003C014010B5426921EA020302EA01041A
:1008F00043EA0443836110BD0AB1816101E00B0446
:1009000083617047014800687047000018000020AC
:1009100003480068034909780844014908607047A2
:10092000180000202000002010B50D48006840F499
:1009300000700B4908600846006840F48060086059
:100940000846006840F480700860032000F0C6F894
:100950000F2000F007F800F049F8002010BD00005B
:10096000003C024070B588B00446002500260022F5
:1009700021461C2000F074F81C2000F061F800BF34
:10098000002001901648006840F0010014490860FA
:100990000846006800F00100019000BF00BF02A9F6
:1009A00003A800F0B7F900F0DDF945000D48B5FBEC
:1009B000F0F0461E4FF080400B49086040F2E731EE
:1009C0000948C160466000210161816000F092FC2D
:1009D00020B9054800F0C2FC08B070BD0120FBE75B
:1009E0004038024040420F007001002008B500BFAF
:1009F000002000901148006840F480400F490860D2
:100A00000846006800F48040009000BF00BF00BFAF
:100A100000200090081F006840F08050091F086007
:100A20000846006800F08050009000BF00BF002220
:100A30000F21901E00F014F808BD00004438024059
:100A400001460846002809DB00F01F0301229A40F6
:100A500043099B0003F1E023C3F8002100BF704766
:100A60002DE9F05F80460D461646002701F09EFBFB
:100A7000074639462A46334601F00700C0F1070A07
:100A8000BAF1040F02D94FF0040A01E0C0F1070ADD
:100A9000D14600F1040ABAF1070F02D24FF0000A62
:100AA00001E0A0F1030AD4464FF0010A0AFA09FA5C
:100AB000AAF1010A0AEA020A0AFA0CFA4FF0010B3B
:100AC0000BFA0CFBABF1010B0BEA030B4AEA0B042C
:100AD0002146404601F072FBBDE8F09F00BF00F0E8
:100AE0000702064B19684FF6FF031940044B0B43EE
:100AF00043EA0221014B196000BF70470CED00E092
:100B00000000FA0538B5002400BF002000901D4801
:100B1000006840F080501B4908600846006800F0FB
:100B20008050009000BF00BF012017490864FFF704
:100B3000E9FE044607E0FFF7E5FE001BB0F57A7F0B
:100B400001D9032038BD1148406800F48030B0F569
:100B5000803FF0D101200C494864FFF7D3FE0446E2
:100B600007E0FFF7CFFE001BB0F57A7F01D9032025
:100B7000E8E70648406800F40030B0F5003FF0D1E7
:100B80000020DFE74038024000000E4200700040C5
:100B900070B504460D460CB9012070BD5848006878
:100BA00000F00F00A84209D255490D7008460068B0
:100BB00000F00F00A84201D00120EEE7207800F0FD
:100BC000020002281DD1207800F00400042805D17D
:100BD0004C48006840F4E0504A490860207800F032
:100BE0000800082805D14748006840F4604045499E
:100BF00008604448006820F0F000A16808434149BB
:100C00000860207800F00100A8B36068012807D1CF
:100C10003C4808380068C0F34040B8B90120BCE740
:100C20006068022802D06068032807D13548083878
:100C30000068C0F3406048B90120AEE73148083889
:100C40000068C0F3400008B90120A6E72D480068FD
:100C500020F00300616808432A490860FFF752FE4C
:100C6000064609E0FFF74EFE801B41F288318842BC
:100C700002D9032091E707E02248006800F00C0049
:100C80006168B0EB810FEDD11D48006800F00F00E6
:100C9000A84209D91A490D700846006800F00F00F3
:100CA000A84201D0012078E7207800F00400042851
:100CB00007D11448006820F4E050E1680843114966
:100CC0000860207800F00800082808D10D48006866
:100CD00020F46040216940EAC1000A49086000F040
:100CE00061F808490968C1F30311074A515CC8401B
:100CF0000649086006480068FFF734FE00204CE70C
:100D0000003C0240083802408670000824000020A1
:100D10001C0000200F2202600D4A126802F003023C
:100D200042600B4A126802F0F0028260084A1268C0
:100D300002F4E052C260064A126802F46042D2082D
:100D40000261044A126802F00F020A607047000054
:100D500008380240003C024001480068704700002B
:100D60002400002000B5FFF7F7FF04490968C1F32C
:100D70008221034A515CC84000BD0000083802408F
:100D80009670000800B5FFF7E7FF04490968C1F352
:100D90004231034A515CC84000BD0000083802409F
:100DA000967000082DE9F047002400250026A14692
:100DB0002548006800F00C0020B1042805D0082860
:100DC0003AD105E0DFF8849039E0DFF8849036E02E
:100DD0001D48001F006800F03F041B48001F00680A
:100DE00000F4800078B11A481749091F0968C1F357
:100DF0008811A0FB01700146224600233846FFF708
:100E0000B5FA05460EE011480F49091F0968C1F3FC
:100E10008811A0FB01700146224600233846FFF7E7
:100E2000A5FA05460848001F0068C0F30140401CB1
:100E30004600B5FBF6F902E0DFF8109000BF00BFF6
:100E40004846BDE8F0870000083802400024F4005E
:100E500000127A00F8B504460CB90120F8BD2078DC
:100E600000F00100002874D0F948006800F00C0080
:100E700004280DD0F648006800F00C00082813D1B3
:100E8000F348001F006800F48000B0F5800F0BD11C
:100E9000EF4808380068C0F34040002859D0606827
:100EA000002856D10120D9E700BF6068B0F5803F27
:100EB00008D1E7480838006840F48030E449083930
:100EC00008601EE06068B0F5A02F0DD1E04808383A
:100ED000006840F48020DE49083908600846006850
:100EE00040F4803008600CE0D9480838006820F4ED
:100EF0008030D749083908600846006820F480200F
:100F0000086000BF606890B1FFF7FCFC054606E092
:100F1000FFF7F8FC401B642801D903209EE7CC486A
:100F200008380068C0F340400028F1D011E0FFF716
:100F3000E9FC054606E0FFF7E5FC401B642801D903
:100F400003208BE7C24808380068C0F340400028FF
:100F5000F1D1207800F0020002285FD1BC4800687F
:100F600000F00C0058B1BA48006800F00C000828E6
:100F70001CD1B748001F006800F48000B0B9B44825
:100F800008380068C0F3400020B1E068012801D0B3
:100F9000012063E7AE480838006820F0F8002169B6
:100FA00040EAC100AA490839086037E0E06800B3A8
:100FB0000120A8490860FFF7A5FC054606E0FFF7F9
:100FC000A1FC401B022801D9032047E7A0480838AC
:100FD0000068C0F340000028F1D09D480838006840
:100FE00020F0F800216940EAC100994908390860F9
:100FF00014E0002097490860FFF784FC054606E0EE
:10100000FFF780FC401B022801D9032026E7904807
:1010100008380068C0F340000028F1D1207800F0C3
:10102000080008282CD16069A8B101208A4908600D
:10103000FFF768FC054606E0FFF764FC401B02284A
:1010400001D903200AE782486C300068C0F34000F1
:101050000028F1D014E000207F490860FFF752FC1F
:10106000054606E0FFF74EFC401B022801D903208D
:10107000F4E677486C300068C0F340000028F1D1F6
:10108000207800F00400042870D100277048383020
:10109000006800F0805090B900BF002000906C48BC
:1010A0003830006840F0805069493831086008469F
:1010B000006800F08050009000BF00BF0127674823
:1010C000006800F48070B0B96448006840F4807033
:1010D00062490860FFF716FC054606E0FFF712FCC0
:1010E000401B022801D90320B8E65C48006800F4E0
:1010F00080700028F2D000BFA068012808D15448B1
:101100006830006840F001005149683108601DE016
:10111000A06805280DD14E486830006840F00400F2
:101120004B49683108600846006840F001000860DB
:101130000CE047486830006820F0010044496831FD
:1011400008600846006820F00400086000BFA0683E
:10115000A8B1FFF7D7FB054609E0FFF7D3FB401B1B
:1011600041F28831884202D9032077E626E03848E8
:1011700068300068C0F340000028EED013E0FFF7AD
:10118000C1FB054608E0FFF7BDFB401B41F288317B
:10119000884201D9032061E62D4868300068C0F319
:1011A00040000028EFD1012F07D1294838300068CE
:1011B00020F0805026493831086000BFA06900281F
:1011C00045D02348006800F00C0008285DD0A069D5
:1011D000022845D100201F490866FFF793FB05460A
:1011E00006E0FFF78FFB401B022801D9032035E6FC
:1011F000174808380068C0F340600028F1D1D4E9EE
:1012000007010843616A40EA81110122A06AC2EB2A
:10121000500041EA00412C20005D41EA00600C4989
:10122000091F086001200B490866FFF76BFB0546A4
:1012300006E0FFF767FB401B022801D903200DE6FB
:10124000034808380068C0F340600028F1D049E046
:101250000838024000004742800E474200700040BC
:10126000002021490866FFF74DFB054606E0FFF721
:1012700049FB401B022801D90320EFE51B48006809
:10128000C0F340600028F2D12CE0A069012800D111
:10129000E4E51648001D0668A069012820D006F480
:1012A0008001E06981421BD106F03F01206A814242
:1012B00016D147F6C0703040616AB0EB811F0FD184
:1012C00006F440310122A06AC2EB5000B1EB004F9E
:1012D00006D106F070612C20005DB1EB006F01D0EB
:1012E0000120BBE50020B9E500004742003802407C
:1012F0007047704710B504460CB9012010BD94F832
:101300003D0028B9002084F83C00204600F025F874
:10131000022084F83D00211D206800F095FC01208A
:1013200084F8460000BF84F83E0001213F200155AB
:10133000402001554120015500BF00BF012084F825
:10134000420043200155442001554520015500BF6E
:10135000012084F83D000020D0E77047014691F855
:101360003D00012801D001207047022081F83D0096
:101370000868C06840F001000B68D8601A4B086824
:1013800098421BD00868B0F1804F17D0174B0868FF
:10139000984213D0164B086898420FD0154B086836
:1013A00098420BD0144B0868984207D0134B08683A
:1013B000984203D0124B086898420CD108688068A4
:1013C00000F00702062A0CD00868006840F001000F
:1013D0000B68186005E00868006840F001000B68C1
:1013E00018600020C0E70000000001400004004039
:1013F00000080040000C0040000401400040014093
:1014000000180040704710B5044620680069C0F31A
:101410004000D8B12068C068C0F34000B0B16FF0A0
:10142000020021680861012020772068806900F0AF
:10143000030018B12046FFF7E5FF05E0204600F065
:10144000ADF8204600F0ABF8002020772068006956
:10145000C0F38000D8B12068C068C0F38000B0B18C
:101460006FF00400216808610220207720688069FD
:1014700000F4407018B12046FFF7C4FF05E0204695
:1014800000F08CF8204600F08AF8002020772068D1
:101490000069C0F3C000D8B12068C068C0F3C000C4
:1014A000B0B16FF00800216808610420207720683F
:1014B000C06900F0030018B12046FFF7A3FF05E064
:1014C000204600F06BF8204600F069F800202077F5
:1014D00020680069C0F30010D8B12068C068C0F36C
:1014E0000010B0B16FF0100021680861082020776B
:1014F0002068C06900F4407018B12046FFF782FFF1
:1015000005E0204600F04AF8204600F048F80020A8
:1015100020772068006900F0010058B12068C06899
:1015200000F0010030B16FF0010021680861204631
:1015300000F036F820680069C0F3C01058B1206888
:10154000C068C0F3C01030B16FF08000216808613E
:101550002046FFF7CDFE20680069C0F3801058B127
:101560002068C068C0F3801030B16FF0400021687F
:101570000861204600F01DF820680069C0F34010A3
:1015800058B12068C068C0F3401030B16FF020003F
:10159000216808612046FFF7ACFE10BD7047704718
:1015A00010B504462068B0F1804F01D1FFF7B0F9C3
:1015B00010BD704710B504460CB9012010BDA069DC
:1015C00000B100E000BF94F83D0028B9002084F885
:1015D0003C00204600F028F8242084F83D002068D4
:1015E000C06820F400502168C860204600F0C0FBAD
:1015F0002068006920F490402168086120684069F3
:1016000020F02A00216848612068C06840F400503A
:101610002168C86000202064202084F83D0084F800
:101620003E000020CAE7000010B586B00446142131
:1016300001A8FEF783FF1B492068884230D100BF14
:10164000002000901848006840F01000164908601B
:101650000846006800F01000009000BF00BF00BF07
:101660000020009010481438006840F001000E4936
:10167000143908600846006800F00100009000BFBF
:1016800000BF4FF4C0600190022002900020039040
:10169000032004900720059001A90448FFF71CF8D7
:1016A00006B010BD00100140443802400000024066
:1016B0002DE9F84F04460E46174699464FF0000AAA
:1016C00094F83D0020285AD106B117B90120BDE891
:1016D000F88F00BF94F83C00012801D10220F6E702
:1016E000012084F83C0000BF00202064212084F801
:1016F0003D00FFF707F98246A784E784A068B0F5AC
:10170000805F04D1206910B90025B04602E035465B
:101710004FF0000800BF002084F83C0000BF1BE031
:101720005346002280212046CDF8009000F036FC80
:1017300008B10320CBE745B9B8F80000C0F30800B2
:101740002168486008F1020803E0287821684860B1
:101750006D1CE08C401EE084E08C0028E0D15346F4
:10176000002240212046CDF8009000F017FC08B17F
:101770000320ACE7202084F83D000020A7E70220EA
:10178000A5E700BFFEE7704700B587B0142102A8A7
:10179000FEF7D4FE00BF002001901F48006840F013
:1017A00080001D4908600846006800F08000019034
:1017B00000BF00BF00BF002001900846006840F055
:1017C000010008600846006800F00100019000BFB9
:1017D00000BF00BF002001900846006840F04000B4
:1017E00008600846006800F04000019000BF00BF9C
:1017F00000224FF4C0410948FFF77EF84FF4C04083
:1018000002900120039000200490059002A9034853
:10181000FEF762FF07B000BD3038024000180240FA
:1018200010B50B480B4908604FF4E13048600021C7
:1018300008488160C16001610C2141610021816122
:10184000C161FFF7B7FE08B1FEF742FF10BD00000F
:10185000001001402C01002000BFFEE700BFFEE7A2
:101860002DE9F04704460E4617469846DDF82090CD
:1018700000BF2448007808B900F0DCFB00BF214815
:101880004069A04239D9EFF311810846202181F344
:10189000118800BF00BF0CB304EB4402194960314A
:1018A00041F8326004EB440201EBC2014F6004EBEB
:1018B00044021449603101EBC201C1F808800022E2
:1018C00004EB44030F49603101EBC3010A6104EBEF
:1018D00044030C49603101EBC301CA6004EB4402CC
:1018E0000849603101EBC201C1F81490C1B281F323
:1018F000118800BF00BF002501E04FF0FF352846EA
:10190000BDE8F087346900202DE9F04704460E4613
:1019100017469846DDF8209000BF2448007808B9A3
:1019200000F088FB00BF21480069A04239D9EFF3DD
:1019300011810846202181F3118800BF00BF0CB33C
:1019400004EB44021949183141F8326004EB4402B7
:1019500001EBC2014F6004EB44021449183101EB62
:10196000C201C1F80880002204EB44030F4918317A
:1019700001EBC3010A6104EB44030C49183101EB8C
:10198000C301CA6004EB44020849183101EBC201EB
:10199000C1F81490C1B281F3118800BF00BF0025C7
:1019A00001E04FF0FF352846BDE8F087346900209C
:1019B0002DE9F04104460D461646EFF311808046AE
:1019C000202080F3118800BF00BF32462946204600
:1019D00000F00AF8074608F0FF0080F3118800BF06
:1019E00000BF3846BDE8F0812DE9F74F8346174622
:1019F00000BF2248007808B900F01CFB00BF0BEBC9
:101A00004B011E48603000EBC106DDF804903569DB
:101A1000D6F80CA04FF00008554515D9B068441B06
:101A2000BC4201D2204600E03846044670684119A5
:101A300022464846FEF735FDA044A1443F1B2544FD
:101A4000B068A84200D10025AAEB0504BC4201D22F
:101A5000204600E0384604464CB1706841192246E1
:101A60004846FEF71EFDA044A1443F1B2544B8F1A3
:101A7000000F00D035614046BDE8FE8F346900207C
:101A80002DE9F04104460D46164600BF0D4800788A
:101A900008B900F0CFFA00BFEFF31180074620200D
:101AA00080F3118800BF00BF32462946204600F06F
:101AB0000BF88046F8B280F3118800BF00BF4046A3
:101AC000BDE8F081346900202DE9F04707468846DB
:101AD0001646C24607EB47011B4800EBC109D9F87F
:101AE000140020B1012811D0022826D11EE048465A
:101AF00000F0D6FA0546B54201D2002405E034468E
:101B000032465146484600F012FB18E0484600F0C5
:101B1000C7FA0546B54201D2284600E030460446E1
:101B200022465146484600F002FB08E03246514644
:101B3000484600F0C3FA044601E0002400BF00BF9D
:101B40002046BDE8F08700004C69002010B54FF03A
:101B5000E020006904F0BAFA012801D003F0EEFC9D
:101B600010BD000000B593B0302107A8FEF7E6FCD9
:101B7000142102A8FEF7E2FC00BF002001902748D4
:101B8000006840F08050254908600846006800F071
:101B90008050019000BF00BF00BF0020019020488E
:101BA000006840F440401E4908600846006800F4A0
:101BB0004040019000BF00BF012007904FF4A020DB
:101BC000089002200D9041050E9104210F91B4213F
:101BD0001091022111910421129107A8FFF73AF9FF
:101BE00008B1FEF775FDFEF78DFF08B1FEF770FD39
:101BF0000F20029002200390002004904FF4A05088
:101C000005904FF480500690052102A8FEF7C0FF12
:101C100008B1FEF75DFD13B000BD00004038024082
:101C2000007000400348006840F4700001490860FB
:101C30007047000088ED00E010B50248FFF7E3FBB5
:101C400010BD00007001002010B50268294B9842B9
:101C50000ED0B0F1804F0BD0274B984208D0274BC5
:101C6000984205D0264B984202D0264B984203D189
:101C700022F070024B681A431E4B984220D0B0F1FC
:101C8000804F1DD01C4B98421AD01C4B984217D045
:101C90001B4B984214D01B4B984211D01A4B9842C0
:101CA0000ED01A4B98420BD0194B984208D0194BC2
:101CB000984205D0184B984202D0184B984203D155
:101CC00022F44072CB681A4322F080034C6943EA45
:101CD000040202608B68C3620B688362054B984202
:101CE00002D0084B984201D10B6903630123436181
:101CF00010BD00000000014000040040000800404A
:101D0000000C00400004014000400140004401403C
:101D10000048014000180040001C00400020004026
:101D20000EB500200090002421E000BF00200090AC
:101D30006A46082101A802F04BFD04460CB103F0ED
:101D4000EAFA4CB90098082806D101A801F02CFB4A
:101D500010B101A801F04AFB00980028E6D104F078
:101D60006DFC08B101F086F80A2002F0A1FFDCE763
:101D70002DE9F84F04462068006920F44050E168DE
:101D80000843216808612169A06808436169084324
:101D9000E169084300902068C06849F20C618843FB
:101DA000009908432168C8602068406920F44070A9
:101DB000A16908432168486176492068884203D0B8
:101DC00075492068884203D1FEF7DCFF814602E0B6
:101DD000FEF7C8FF8146E069B0F5004F6CD10220E4
:101DE0006168A0FB015003461920A9FB0070014661
:101DF0002A463846FEF7BAFA6421B0FBF1F04FEA02
:101E0000001A02206168A0FB01510B461920A9FBB2
:101E100000712A463846FEF7A9FA83460220616817
:101E2000A0FB015003461920A9FB00712A46384641
:101E3000FEF79CFA6421B0FBF1F000EBC00101EB6E
:101E40000010ABEB8000322101EBC0006421B0FB3D
:101E5000F1F000F0F8000AEB400A02206168A0FBF4
:101E6000015003461920A9FB007001462A46384656
:101E7000FEF77CFA834602206168A0FB015003460E
:101E80001920A9FB00712A463846FEF76FFA642133
:101E9000B0FBF1F000EBC00101EB0010ABEB8000F8
:101EA000322101EBC0006421B0FBF1F000F007002B
:101EB0005044216888606AE004206168A0FB0150FA
:101EC00003461920A9FB007001462A463846FEF752
:101ED0004DFA824604206168A0FB01500346192098
:101EE000A9FB007001462A463846FEF73FFA6421F6
:101EF000B0FBF1F000EBC00101EB0010AAEB800099
:101F0000322101EB00106421B0FBF1F000F0F00A87
:101F100004206168A0FB017003461920A9FB005151
:101F20003A462846FEF722FA6421B0FBF1F00AEBAC
:101F3000001A04206168A0FB01510B461920A9FB7F
:101F400000712A463846FEF711FA8346042061687C
:101F5000A0FB015003461920A9FB007001462A4648
:101F60003846FEF703FA6421B0FBF1F000EBC00144
:101F700001EB0010ABEB8000322101EB001064217B
:101F8000B0FBF1F000F00F00504421688860BDE81C
:101F9000F88F000000100140001401402DE9F041CD
:101FA00004460D4617469846069E34E0701C88B3DA
:101FB0002EB1FEF7A7FCA0EB0800B0422BD900BF62
:101FC00000BF21680C3151E8001F21F4D070216856
:101FD0000C3141E80002002AF3D100BF00BF00BF6E
:101FE0002168143151E8001F21F0010021681431EB
:101FF00041E80002002AF3D100BF202084F83D0010
:1020000084F83E0000BF002084F83C0000BF03209D
:10201000BDE8F081FFE7206800682840A84201D1B0
:10202000012000E00020B842C0D00020F0E700BF4F
:10203000FEE7000010B5114C03202061606110A084
:10204000A0611249E161402121620021A162616227
:10205000E1620BA020660E4961661021A166002195
:102060002167E16661670BA1E01DFEF7F6F90AA1A1
:102070002046FEF7F2F92020A07110BD346900203F
:102080005465726D696E616C00000000DC690020AF
:102090001C6A0020525454005345474745520000E3
:1020A00010B501460A69CB689A4204D88C68641E50
:1020B000E41AA01801E0D41A601E10BD2DE9F04703
:1020C0000446894617464FF0000AE56800BFD4F879
:1020D0001080A84503D9A8EB0500461E04E0A5EB37
:1020E0000800401CA1680E1AA068401BB04201D92C
:1020F000304601E0A068401B0646BE4201D2304691
:1021000000E0384606466168481932464946FEF7FF
:10211000C8F9B244B144BF1B3544A068A84200D1FD
:102120000025E560002FD2D15046BDE8F0872DE9AB
:10213000F047044689461546E668A068871BAF420B
:1021400008D9616888192A464946FEF7AAF9701924
:10215000E06010E0B8466168881942464946FEF7DB
:10216000A0F9A5EB070809EB070142466068FEF7F6
:1021700098F9C4F80C80BDE8F08703B401984100D9
:10218000009850EAC12018BF04204A0D18BF40F043
:10219000010040F2FF72B2EB515F08BF40F0020055
:1021A000012808BF052002B07047000002480068FF
:1021B000C0F30220704700000CED00E010B50028CD
:1021C00004DB0A07130E054A135406E00A07140E2F
:1021D000034A00F00F031B1FD45410BD00E400E0BD
:1021E00018ED00E0EFF305807047EFF310807047C3
:1021F00010B52F499FED2C1B2DED020B84B00598D7
:1022000020F000408842DCBF00209DED040B32DD51
:102210002849884209D1049840B94FF00100FEF7DF
:10222000BCF900F03DFC06B010BD05DB9DED040BD4
:1022300000F02AFC06B010BD68469DED040B00F0CE
:102240003BF810F0030011D0012818D09DED021BBF
:102250009DED000B02281AD000F04AFA51EC100B49
:1022600004F009FA06B041EC100B10BD9DED021B05
:102270009DED000B012000F06FFB06B010BD9DED41
:10228000021B9DED000B00F033FA06B010BD0120DB
:1022900000F062FB51EC100B04F0EDF906B041ECDC
:1022A000100B10BD00000000000000000000000046
:1022B000FB21E93F0000F07F2DE9F14F04462DEDB1
:1022C000020B2DED088B8AB09FEDE70B80ED020B22
:1022D000139EE74826F0004585420ADC9DED120B6F
:1022E000002084ED000B0AB0BDEC088B03B0BDE804
:1022F000F08FE0489FEDE0AB9FEDE1BBA84247DDEA
:10230000E14F9FEDE39B9FEDE48B9DED120B53ECB2
:102310001A2B51EC100B002E1CDD04F04FFD41EC8C
:10232000100BBD4208D053EC1B2B51EC100B04F0EA
:1023300045FDC4E900010BE053EC192B51EC100BE7
:1023400004F03CFD53EC182B04F038FDC4E9000107
:102350000120C8E704F0CEF941EC100BBD4208D0D3
:1023600053EC1B2B51EC100B04F0C4F9C4E9000131
:102370000BE053EC192B51EC100B04F0BBF953ECB0
:10238000182B04F0B7F9C4E900014FF0FF30AAE7B9
:10239000C348A84279DB9DED120B51EC100B00F005
:1023A000A2FB41EC180B9FEDC00B53EC102B04F07B
:1023B000FBFB9FEDBF1B53EC112B04F09BF904F0CA
:1023C00099FB074604F0C5FB41EC190B53EC1A2BA3
:1023D00004F0EAFB53EC182B04F0E4FC41EC180B7E
:1023E00053EC1B2B51EC190B04F0DEFBDFF8C8A2F9
:1023F00041EC100B4FEA15580125FA4453EC102B11
:1024000051EC180B04F0DAFC032DC4E900013DD0B7
:10241000C1F30A5005EB4511A8EB000011398142C8
:1024200034DA0AEB051BB0EE48AA9BED000BF0EE88
:1024300068AA53EC102B51EC190B04F0B5FB41ECDE
:102440001B0B51EC1A0B53EC1B2B04F0B7FC41ECAB
:10245000180B51EC1A0B53EC182B04F0AFFC53EC97
:102460001B2B04F0ABFC9BED020B41EC1A0B53EC65
:10247000102B51EC190B04F097FB53EC1A2B04F0C2
:102480009DFC41EC100B6D1CB8E70EE0002EA8BFC0
:102490003846BFF628AF94ED000B51EC100B04F05A
:1024A000EAF8C4E9000178421DE7C6F3130040F4DE
:1024B000801EC6F30A50A0F2F530471100F01F0548
:1024C000C5F12000DDF848B0089000200690079084
:1024D0000520EC467949002D07EB0002794408BF3E
:1024E00051F8221009D051F8223001EB8201AB40A3
:1024F0004A68089922FA01F11943A1FB0E26A1FBB3
:102500000B131A449A4234BF0123002303EB06083D
:102510000CEB8003D3E901A60E448E4234BF0121A7
:10252000002192448A4411B1924502D903E09245B8
:1025300001D2012100E00021C3E901A641444CF889
:102540002010011EA0F10100C4DC029800F100502F
:10255000850F0298DDE903678000DDF8148004F040
:10256000F8FA41EC1A0B304604F00AFB9FED541BBD
:1025700053EC112B04F018FB41EC1B0B384604F014
:10258000FFFA9FED511B53EC112B04F00DFB41ECB6
:10259000180B404604F0F4FA9FED4D1B53EC112B41
:1025A00004F002FB41EC190B51EC180B53EC192B06
:1025B00004F0A0F853EC1B2B04F09CF853EC1A2BFE
:1025C00004F098F8CDE90801002008909DED080B73
:1025D00053EC1A2B51EC100B04F0F0FB53EC1B2BBB
:1025E00004F0ECFB53EC182B04F0E8FB53EC192B34
:1025F00004F0D8FB9FED381B53EC112B04F0D4FAF8
:102600009FED370B41EC180B53EC102B9DED080B95
:1026100051EC100B04F0C8FA53EC182B04F06AF8D4
:102620009FED310B41EC180B53EC102B9DED080B7B
:1026300051EC100B04F0B8FA53EC182B04F05AF8D4
:1026400041EC100B139810F0004F06D06D4251EC86
:10265000100B04F010F841EC100B284684ED000B31
:1026600041E6000000000000000000000000000043
:10267000FB21E93F7CD9024000004054FB21F93F97
:102680003163621A61B4D03DFB21F93F00000000C4
:102690000000601A61B4D03D7370032E8A19A33B09
:1026A000FB2139410000000083C8C96D305FE43F61
:1026B000000000000000E03FD24C0000204C000071
:1026C000000000000000103E000000000000103C70
:1026D000000000000000103A182D4454FB21F93D81
:1026E0003326A611460B113C00000054FB21F93D96
:1026F00010B52DED040B2DED088B82B0B0EE419A94
:10270000F0EE619A0B9820F000449FED4BABB4F1D2
:10271000795F11DA9DED0A0B51EC100B04F0EAF928
:10272000002801BFB0EE4A0AF0EE6A0A02B0BDEC22
:10273000088B04BF04B010BD9DED0A0B53EC102BA9
:1027400051EC100B04F030FA41EC180B3C48062118
:10275000B0EE480AF0EE680A784400F081F853ECD5
:10276000182B51EC100B04F01FFA9DED0A0B41ECF5
:102770001B0B53EC192B51EC100B04F015FA41EC28
:10278000190B53EC1B2B51EC180B04F00DFA53EC06
:10279000192B04F013FB9FED2C0B41EC190B53ECA0
:1027A000102B51EC180B04F0FFF941EC100B2848EA
:1027B000844210DA53EC192B51EC100B04F0FEFAA2
:1027C00053EC1A2B04F0EEFA41EC100B02B0BDEC06
:1027D000088B04B010BD1F48A042BCBF9FED1E1B5C
:1027E0008DED001B06DBA4F5001001900020009089
:1027F0009DED001B51EC100B53EC112B04F0DEFA95
:102800009DED000B41EC180B53EC102B51EC1A0B07
:1028100004F0D4FA41EC1A0B53EC192B51EC180BC1
:1028200004F0CCFA53EC1A2B04F0BCFA41EC100B78
:10283000CCE7000000000000000000000000F03FB6
:102840004449000000000000000000000000E03FDC
:102850003333D33F0000E93F000000000000D23FC7
:1028600070B504462DED028B4D1E00EBC500B0EE99
:10287000408AF0EE608A90ED000B35F0060017D02C
:1028800053EC182B51EC100B04F08EF941EC100BAB
:102890006D1E04EBC50090ED001B51EC100B53ECCA
:1028A000112B03F027FF41EC100B35F00600E7D1A8
:1028B000022D36D0042D1CD0062D1CBFBDEC028B82
:1028C00070BD53EC182B51EC100B04F06DF994ED26
:1028D0000A1B53EC112B03F00DFF53EC182B04F0E3
:1028E00063F994ED081B53EC112B03F003FF41EC4B
:1028F000100B53EC182B51EC100B04F055F994ED20
:10290000061B53EC112B03F0F5FE53EC182B04F0CF
:102910004BF994ED040B53EC102B03F0EBFE41EC60
:10292000100B53EC182B51EC100B04F03DF994ED07
:10293000021B53EC112B03F0DDFE53EC182B04F0BB
:1029400033F994ED001B53EC112B03F0D3FEBDECD7
:10295000028B41EC100B70BD31B504462DED040B1C
:102960002DED0A8BB0EE41BAF0EE61BA0B989DEDF9
:102970000A0B20F00040B0F1795F0DDA51EC100B3A
:10298000FFF7FBFB042808BF00F09AF89DED0A0B47
:10299000BDEC0A8B05B030BD53EC102B51EC100B85
:1029A00004F002F941EC180B9DED0A0B53EC182BC7
:1029B00051EC100B04F0F8F841EC190B2C48B0EE78
:1029C000480AF0EE680A05217844FFF749FF9FEDB9
:1029D0002ACBB0EE40AAF0EE60AA9CB353EC1C2BBD
:1029E00051EC190B04F0E0F841EC1C0B53EC1A2BE2
:1029F00051EC190B04F0D8F89FED210B41EC190BA9
:102A000053EC102B51EC1B0B04F0CEF853EC192BAC
:102A100004F0D4F953EC182B04F0C6F853EC1B2B3C
:102A200004F0CCF953EC1C2B04F0C8F99DED0A1B03
:102A300053EC112B04F0B6F9BDEC0A8B05B041EC58
:102A4000100B30BDFFE753EC1A2B51EC180B04F0C0
:102A5000ABF853EC1C2B03F04DFE53EC192B04F098
:102A6000A3F89DED0A1B53EC112B03F043FEE3E7A3
:102A7000CC47000000000000495555555555C5BFCD
:102A8000000000000000E03F10B553EC102B51ECAB
:102A9000100B03F02FFE41EC100B10BD00000000E6
:102AA0009FED050B10B553EC102B51EC100B03F000
:102AB000C9FE41EC100B10BD00000000000000003A
:102AC0009FED050B10B553EC102B51EC100B04F0DF
:102AD0006BF841EC100B10BD00000000000000106E
:102AE00080F31088704782B0CDE9000121F00040EA
:102AF00001909DED000B02B051EC100B70470000EF
:102B00001CB5FDF711FFFFF72DF8022002F0E6FAE1
:102B1000FEF73AFEFEF784FE1A481B4908604FF4A0
:102B2000005088801748194908604FF48040888019
:102B300017480221144B4FF4FA72CDE9001015A189
:102B4000184803F02DFA12480221104B4FF4FA7284
:102B5000CDE9001014A1134803F022FA164804210D
:102B600000234FF4FA72CDE9001014A1164803F0C7
:102B700017FA00F02BF8FEF706FE00F03DF800BF54
:102B8000FEE70000001802400800002010000020AE
:102B900000000020677265656E5F6C65645F74613C
:102BA000736B0000054800087265645F6C65645FC4
:102BB0007461736B00000000040000207561727482
:102BC0005F7461736B000000C148000810B5FFF727
:102BD00009FB10B16FF0050409E00648006820B950
:102BE000012004490860002401E04FF0FF34204632
:102BF00010BD00007800002070B5FFF7F3FA10B1A7
:102C00006FF005041FE011480068012819D100BFCA
:102C1000801F0021002804DB0A07130E0C4A1354FE
:102C200006E00A07150E0B4A00F00F031B1FD554D0
:102C300000BF00BF02200549086002F057F90024D8
:102C400001E04FF0FF34204670BD00007800002006
:102C500000E400E018ED00E02DE9F04105460E46E5
:102C60001648076816480068001D01F067FE681CDA
:102C700038B936B112480168091D124801F0BEFE8C
:102C80001AE07C190E4800684460BC4207D20C4828
:102C90000168091D0C48006801F096FE0CE0084828
:102CA0000168091D0948006801F08EFE08480068A7
:102CB000844201D206480460BDE8F0813C00002057
:102CC00028000020A8060020300000202C00002052
:102CD0005800002070B5044601F09CFE3F48006893
:102CE000401C3E4908603E48006840B93C480460CA
:102CF0000846006801280DD100F0A6FA0AE039481C
:102D0000006838B936480068C06AE16A884201D86C
:102D10003348046034480068401C33490860084662
:102D2000006860644CB304F13401204600F0A6FF53
:102D30002046E16A00F05EFF234604F134020321DD
:102D4000012001F0BBFA29480188204601F012F861
:102D500000F0A0FD054600F015FF25490988084050
:102D600058B1204600F00EFF21490988084020B1E3
:102D700021461020E26A01F047F8204600F002FFE9
:102D80001B490988084018B12146302001F000F89D
:102D90001849E06A0968884202D91649E06A086061
:102DA000E16A01EB8101144A02EB8100211D01F06F
:102DB00025FE01F059FE0B48006868B1084800681C
:102DC000C06AE16A884207D24FF080500B49086020
:102DD000BFF34F8FBFF36F8F70BD0000380000202E
:102DE0002800002044000020540000201A01002088
:102DF0001801002040000020F801002004ED00E050
:102E000008B501F007FE12480068E8B9114801F062
:102E1000CBFD114801F0C8FD0E48104908600E486E
:102E20000F49086000200F4B0F4A102100900A2024
:102E300002F09EFB064908600846006820B10BA11D
:102E40000348006801F0EAFE01F00EFE08BD000034
:102E50006C000020BC060020D0060020640000208A
:102E600068000020E406002034070020546D7251F1
:102E70000000000010B51348006828B1072001F0D9
:102E80005DFB00200F4908600F48006828B1092049
:102E900001F054FB00200C4908600C480068192818
:102EA00005D9082001F04AFB0020084908600848BD
:102EB000006828B10A2001F041FB002004490860A5
:102EC00010BD0000080100200C01002010010020AE
:102ED0001401002010B516E001F09CFD0C48C068FC
:102EE000C468201D01F02AFD0A480068401E0949F7
:102EF000086009480068401E0749086001F0B4FDF9
:102F0000204600F05FF8044800680028E4D110BDB6
:102F100094060020380000203400002070B50446DC
:102F20000D46206C70B1216CE0680144E160D4E989
:102F30000210884201D32168E1602846226CE168D2
:102F4000FDF7AFFA70BD2DE9F04104460F46154676
:102F50004FF00008A66B206C48B9206800282CD1DF
:102F6000A06803F08FF980460020A06025E07DB9BD
:102F70003946226C6068FDF794FA216C6068084459
:102F80006060D4E90101884217D32068606014E0D2
:102F90003946226CE068FDF784FA216CE068411A3A
:102FA000E1602168E068884203D2216CA068411A80
:102FB000E160022D01D106B1761E701CA06340466F
:102FC000BDE8F08110B5044694F8590030B9206B83
:102FD00001F068FD204601F065FD1AE094F8590003
:102FE000012803D1204601F05DFD12E094F859005C
:102FF000022801D1012000E0002050B900BF50207C
:1030000080F31188BFF34F8FBFF36F8F00BF00BFF6
:10301000FEE710BD0146084A126812680AB901228B
:1030200000E000220A600A6822B9034A1268D268E6
:10303000106800E0002070476400002001484068EC
:1030400070470000001000E030B54FF4705317488F
:1030500000F007042CB1C01D20F00700134C041B26
:103060001B1B0246124C22600024114D6C60D018CC
:10307000083820F007000F4C206000240D4D2D680B
:103080006C600C4D2D682C601146441A4C60094C44
:1030900024680C60084D4C682C60084D4C682C600E
:1030A0004FF00044064D2C6030BD00008C0E002017
:1030B0007C000020840000208C000020880000207C
:1030C0009800002000BFFFF705FF064800680128B0
:1030D000F9D94FF0805004490860BFF34F8FBFF318
:1030E0006F8FF0E7F801002004ED00E02DE9F047D4
:1030F00005460E4617469846089C0EB9246000E027
:103100002760E56326640121204602F0D3FA84F8A3
:103110004C801B480188204600F01EFE00F0BAFBE0
:10312000814600F02FFD17490988084030B320463A
:1031300000F01EFD134909880840F8B194F84C00CE
:1031400030B101280FD0032808D0042815D10FE092
:103150002A462146112000F057FE0EE0214612209B
:1031600000F016FE09E02146132000F011FE04E0F5
:103170002146172000F00CFE00BF00BFBDE8F0871D
:103180001A010020180100202DE9F05F82460E464A
:1031900090469B460A9F0C9C4FEA8801A522206B13
:1031A000FDF7C4F9A8F10100216B01EB800929F0BA
:1031B000070909F0070008B9012000E0002050B914
:1031C00000BF502080F31188BFF34F8FBFF36F8F84
:1031D00000BF00BFFEE786B1002507E0715D04F186
:1031E00034004155705D00B902E06D1C102DF5D31F
:1031F00000BF00214320015502E0002084F8340084
:10320000382F00D33727E762E76400202065201DB0
:1032100001F0D7FB04F1180001F0D3FB2461C7F1E2
:103220003800A06164620020606584F858005A4646
:103230005146484601F0B6FA20600B9808B10B9849
:103240000460BDE8F09F000010B5002407E004EB27
:1032500084010F4A02EB810001F0A6FB641C382CAC
:10326000F5D30C4801F0A0FB0B4801F09DFB0B4887
:1032700001F09AFB0A4801F097FB0A4801F094FB21
:1032800004480949086004480849086010BD000066
:10329000F8010020580600206C060020800600205F
:1032A00094060020A80600202C00002030000020FA
:1032B00010B50146164800E0006803688B42FBD356
:1032C0000246436813448B4204D143684C6823444C
:1032D000436001460A464B6813440468A34211D177
:1032E0000C4C03682468A34208D04B6804686468E7
:1032F00023444B6003681B680B6005E0054B1B68AB
:103300000B6001E003680B60884200D0016010BDD3
:103310007C000020840000202DE9F04104460D4689
:1033200016461F464FF0000865602461B5420CD870
:10333000F01BA169884202D34FF0010811E0211D62
:103340000948006801F040FB0BE0BE4204D2BD42D8
:1033500002D34FF0010804E0211D0448006801F089
:1033600033FB4046BDE8F081680000206400002087
:1033700070B5054601F04EFBA86B08B9012400E0CA
:10338000002401F071FB204670BD70B5054601F0C8
:1033900041FBA86BE96B884201D1012400E00024C5
:1033A00001F062FB204670BD014608784B78184456
:1033B0008B781844CB7818440B7918444B7918440F
:1033C0004FF6FF731A1AC879B0EB222F01D00020F4
:1033D00070478879D3B2984201D00020F8E7087886
:1033E000012801DD0020F3E70120F1E710B50446D4
:1033F0002078012803D1607800F05AF900E000BF7E
:1034000000BF10BDF8B505460F461A480068C068F1
:10341000C468201D01F092FA94F8280000F004001E
:10342000E8B1A06941192B463A462046FFF774FFE0
:10343000D8B1002003462A4601460090204603F0FA
:10344000BBF8064656B900BF502080F31188BFF381
:103450004F8FBFF36F8F00BF00BFFEE705E094F80A
:10346000280020F0010084F828002046216A8847BF
:10347000F8BD000064000020F0B587B0A0E003981C
:10348000002811DA04AE56B900BF502080F311882D
:10349000BFF34F8FBFF36F8F00BF00BFFEE7D6E9CA
:1034A0000020B168904700BF03980028E6DB059C28
:1034B000606908B9012000E0002010B9201D01F06A
:1034C0003DFA02A800F0DEF8054603980A2875D2F6
:1034D000DFE800F009050739416306083A4200BFFA
:1034E00000BF00BF00BF94F8280040F0010084F83E
:1034F00028000498A269811803462A462046FFF74F
:103500000BFFF8B12046216A884794F8280000F0A4
:103510000400B8B1002000900498A169421800236B
:103520001946204603F048F8074657B900BF502017
:1035300080F31188BFF34F8FBFF36F8F00BF00BFC1
:10354000FEE700BF3BE000BF94F8280020F0010038
:1035500084F8280033E000BF94F8280040F0010010
:1035600084F828000498A061A06908B1012000E057
:10357000002050B900BF502080F31188BFF34F8F57
:10358000BFF36F8F00BF00BFFEE7A06941192B4654
:103590002A462046FFF7C0FE11E094F8280000F00C
:1035A000020018B9204601F07DFA05E094F82800E1
:1035B00020F0010084F8280001E0FFE700BF00BF11
:1035C000002203A90448006802F026FB00287FF4CB
:1035D00056AF07B0F0BD00006C000020F8B50546FE
:1035E0000C4601F007FD684600F04CF806460098CE
:1035F00020BB44B9B54206D802F014FF3146284634
:10360000FFF700FF1CE03CB10E480068006808B9F5
:10361000012000E000200446A91B22460A48006859
:1036200001F020FB02F0FEFE50B94FF08050074938
:103630000860BFF34F8FBFF36F8F01E002F0F2FE1F
:10364000F8BD0000680000206C00002004ED00E0E0
:103650000A490968096809B9012100E0002121B17E
:103660004FF0FF31064A116006E004490968C96855
:10367000C868034A41681160704700002C000020B0
:103680005800002070B5044602F030FD054607489A
:103690000068854204D200F039F80120206001E082
:1036A0000020206001480560284670BD740000209D
:1036B00070B5044612480068A04200D170BDFEF704
:1036C00094FD05460120FFF70BFA8CB100200D494F
:1036D0000860FF200C49087000F04EFC00F096FED8
:1036E00000F0BAFC00F012FC00F08AFD00F0D6FEFB
:1036F000034804602846FFF7F3F900BFDEE7000047
:1037000020010020C0000020D40000202DE9F84353
:1037100034E025480068C068056823480068C06830
:10372000C468201D01F00AF92046216A884794F8F0
:10373000280000F0040008B3A0694619AE4207D97A
:1037400066602461211D1848006801F03DF915E00C
:10375000002003462A4601460090204602F02CFF36
:10376000074657B900BF502080F31188BFF34F8F31
:10377000BFF36F8F00BF00BFFEE700BF0A480068BD
:10378000006808B9012000E000200028C1D00648E8
:10379000D0F8008005480068034908600348C0F875
:1037A0000080BDE8F883000064000020680000206D
:1037B0000E480068401C08B9012000E0002050B904
:1037C00000BF502080F31188BFF34F8FBFF36F8F7E
:1037D00000BF00BFFEE700BF502080F31188BFF399
:1037E0004F8FBFF36F8F00BF00BFFEE79C0000202C
:1037F00008B500BF6846FFF70DFC04462046009957
:10380000FFF7ECFEFFF738FEF4E7000070B5044662
:1038100011480068F8B9104804600078401E012182
:1038200001FA00F00D49096808430C4908600A488C
:10383000006800F033F805462A46094801689020E0
:1038400000F050FC07A206480168902000F04AFCF6
:103850000020FFF72DFF70BDD8000020C800002019
:10386000B00000205265636F726465722073746FDC
:103870007070656420696E20707276547261636541
:103880004572726F72282900014800687047000075
:10389000F400002010B502F013FC10BD01460F2902
:1038A00025D2DFE801F024181A1C1E2022080A0C79
:1038B0000E10121614000FA070471BA0FCE727A0E3
:1038C000FAE733A0F8E73CA0F6E748A0F4E754A0F5
:1038D000F2E75EA0F0E76AA0EEE774A0ECE77EA056
:1038E000EAE788A0E8E793A0E6E740A0E4E7002045
:1038F000E2E7000045786365656465642053594DCF
:10390000424F4C5F5441424C455F534C4F545320FF
:1039100028736565207072765472616365476574BB
:103920004572726F7229000045786365656465644D
:103930002053594D424F4C5F4D41585F4C454E47C7
:1039400054482028736565207072765472616365EF
:103950004765744572726F7229000000457863658F
:1039600065646564204F424A4543545F4441544175
:103970005F534C4F54532028736565207072765402
:10398000726163654765744572726F722900000049
:10399000537472696E6720746F6F206C6F6E67204E
:1039A000287365652070727654726163654765742B
:1039B0004572726F722900005452435F535452454E
:1039C000414D5F504F52545F524541445F44415412
:1039D000412072657475726E6564206572726F72D3
:1039E0002028213D2030292E000000005452435F42
:1039F00053545245414D5F504F52545F57524954B2
:103A0000455F444154412072657475726E6564204F
:103A10006572726F722028213D2030292E0000002F
:103A20005452435F4346475F535441434B5F4D4FAE
:103A30004E49544F525F4D41585F5441534B5320B0
:103A4000746F6F20736D616C6C210000426C6F634A
:103A50006B696E6720696E20765472616365456E8E
:103A600061626C65202873656520785472616365B6
:103A70004765744C6173744572726F72290000005F
:103A8000496E76616C6964206576656E7420636F3B
:103A90006465202873656520707276547261636571
:103AA0004765744572726F7229000000457863653E
:103AB0006564656420495352206E657374696E674E
:103AC000202873656520707276547261636547655E
:103AD000744572726F722900445754206E6F7420BF
:103AE000737570706F7274656420287365652070DB
:103AF000727654726163654765744572726F72299C
:103B0000000000004457545F435943434E54206E15
:103B10006F7420737570706F72746564202873659C
:103B20006520707276547261636547657445727280
:103B30006F722900436F756C64206E6F742063721E
:103B40006561746520547A4374726C2028736565CE
:103B50002070727654726163654765744572726F46
:103B60007229000010B50446204600F0FBFE10BD8F
:103B700010B504462046FFF7F5FF4FF6FF7101EA46
:103B8000104010BD10B50446204600F0EEFE4FF682
:103B9000FF7101EA104010BD10B5124812490860CB
:103BA0001248006840F080701049086000BF084665
:103BB000006818B90320FFF729FE11E00C480068DF
:103BC00000F0007018B10420FFF720FE08E000208C
:103BD000074948600846006840F00100086000BFDF
:103BE00000BF10BD55CEACC5B01F00E0FCED00E03D
:103BF000001000E02DE9F04706460F46FEF7F5FA03
:103C000081460120FEF76CFF1948056800240AE090
:103C1000A008184901EB8008D8F80000B04201D193
:103C2000254604E00834124800688442F0D300BFFF
:103C3000B5F5A07F12D2A8080E4941F820600120F6
:103C400000EB950041F820700948006885420AD1D0
:103C50000748006808300649086004E00648006824
:103C6000401C054908604846FEF73AFFBDE8F0876A
:103C7000D0000020906700200C0100202DE9F041C9
:103C800006460D46FEF7B1FA80460120FEF728FFF2
:103C90001A480068B0F5A06F26D21848006880085E
:103CA000174941F8206015480068001D0F180024CE
:103CB00005E0285D3855285D00B902E0641C192C28
:103CC000F7D300BF00E0641C285D08B1802CFAD354
:103CD0000C480068844201D90A480460074800681B
:103CE00020300649086004E007480068401C064987
:103CF00008604046FEF7F4FEBDE8F081CC000020ED
:103D000090620020100100200801002070B50446D8
:103D10000025FEF76AFA06460120FEF7E1FE094893
:103D20000068B0F5A06F07D2074806490968451832
:103D300021462846FFF7A2FF3046FEF7D1FE28466F
:103D400070BD0000CC000020906200200149086096
:103D500070470000F400002070B505460C46284668
:103D6000FFF700FF64F31F4006463146284600F087
:103D700077FF70BD70B505460C46284600F0F5FD8E
:103D800064F31F4006463146284601F0ABF870BD8B
:103D9000F8B505460E46B5F5805F03DB0120FFF759
:103DA00035FDF8BDFEF721FA07460120FEF798FE23
:103DB00012480068E0B112480068401C10490860D1
:103DC000104CA4B145F480502080084600886080E3
:103DD000FFF734F96060A660002000906A460C216D
:103DE000204601F0D3FA08B101F095FA00BF00BFF8
:103DF0003846FEF775FE00BFD3E700002001002023
:103E0000C0000020F06800202DE9F84305460E466A
:103E10001746B5F5805F04DB0120FFF7F7FCBDE82E
:103E2000F883FEF7E2F980460120FEF759FE1348B9
:103E30000068E8B112480068401C11490860114C44
:103E4000ACB145F400502080084600886080FFF740
:103E5000F5F86060A660E760002000906A461021D7
:103E6000204601F093FA08B101F055FA00BF00BFF7
:103E70004046FEF735FE00BFD1E7000020010020DC
:103E8000C0000020F06800202DE9F84305460E46EA
:103E900017469846B5F5805F04DB0120FFF7B6FCB6
:103EA000BDE8F883FEF7A1F981460120FEF718FE70
:103EB00013480068F8B113480068401C11490860B5
:103EC000114CBCB145F44050208008460088608009
:103ED000FFF7B4F86060A660E760C4F810800020C7
:103EE00000906A461421204601F050FA08B101F012
:103EF00012FA00BF00BF4846FEF7F2FD00BFCFE751
:103F000020010020C0000020F06800202DE9F843C7
:103F1000FEF76BF981460120FEF7E2FD144E1548CD
:103F200000683060374604244FF0000800BF0020CE
:103F300000906A462146384601F028FA05461DB130
:103F40000620FFF763FC07E0009807440098241A56
:103F500008F10108002CEAD100BFB8F1010F02D925
:103F60000D2000F0EBFA4846FEF7BAFDBDE8F883F5
:103F7000F0680020C40000202DE9F84F0FF2C008BF
:103F8000FEF733F983460120FEF7AAFD2D4C2E489B
:103F9000006820602D480088A08041F6A120E080C4
:103FA0000020A060002509E018F8051004F11000B9
:103FB000415518F8050000B902E06D1C082DF3DB2F
:103FC00000BF00202083A0760120E0760220A060C0
:103FD0000120E0601E480068E0611E480068206221
:103FE000A068A0602020A0842820E08408202085EC
:103FF00028206085A1462C264FF0000A00BF002033
:1040000000906A463146484601F0C0F907461FB1A4
:104010000620FFF7FBFB07E0009881440098361A62
:104020000AF1010A002EEAD100BFBAF1010F02D94C
:104030000D2000F083FA5846FEF752FDBDE8F88FD8
:1040400000000000F0680020B8000020BC00002044
:10405000DC000020E00000202DE9F84F00250024BE
:10406000FEF7C3F883460120FEF73AFD00BF2EE0BD
:10407000DFF86880002406E02819194951F820006B
:1040800048F82400641C022CF6D3C14608264FF0E1
:10409000000A00BF002000906A463146484601F001
:1040A00075F907461FB10620FFF7B0FB07E000983F
:1040B00081440098361A0AF1010A002EEAD100BFA5
:1040C000BAF1010F02D90D2000F038FAAD1C502DC5
:1040D000CED35846FEF704FDBDE8F88FF068002007
:1040E000906700202DE9F04F99B0824688469346AC
:1040F000002017908146002400E0641C1BF8040097
:1041000008B1342CF9DB201DC11700EB9171891027
:104110001891B8F1000F06D01798401C17900AF1BB
:1041200001001FFA80FA17984FEA8009DDE917109D
:1041300046180F2E0CDDA6F10F0188002D490968E5
:10414000884201D92B4908600F26C9F13C0400BF01
:10415000FEF74BF816900120FEF7C2FC26480068D7
:10416000002841D0082000EB860015902348006805
:10417000401C2249086004ADADB306F00F004AEAC6
:1041800000302880084600886880FEF757FF686086
:1041900005F108000390B8F1000F02D00398C0F8B1
:1041A000008005F108000290002706E01BF80710C8
:1041B00009EB0702029881547F1CA742F6DBC9F184
:1041C0003C00A04204DD002109EB04020298815466
:1041D0000020019001AA2846159901F0D7F808B1EE
:1041E00001F099F800BF00BF1698FEF779FC19B0EE
:1041F000BDE8F08F1401002020010020C000002045
:104200002DE9F84FFDF7F1FF82460120FEF768FC2B
:104210002548006808B9022502E0FFF73BFB054688
:1042200022480068401C21490860214C002C36D0EF
:1042300043F201002080084600886080FEF7FEFE01
:1042400060601C480068A060E5601B480068206151
:1042500019480068401C18490860A04614264FF011
:10426000000900BF002000906A463146404601F038
:104270008DF807461FB10620FFF7C8FA07E000983F
:1042800080440098361A09F10109002EEAD100BFD6
:10429000B9F1010F02D90D2000F050F900BF5046CE
:1042A000FEF71EFCBDE8F88F1C010020C0000020B6
:1042B000F0680020FC000020B40000200FB4FEB520
:1042C00005460E46002400E0641C0A98005D08B113
:1042D000342CF9DB0BA80290029801900A9823462F
:1042E000002231460090284600F006F80020029097
:1042F000FEBC5DF814FB00002DE9FF4F97B080462F
:1043000092461E464FF00009301DC11700EB917117
:10431000891016914FEA8809169800EB08070F2FAD
:104320000CDDA7F10F01880035490968884201D9E1
:10433000334908600F27C9F13C0600BFFDF755FF60
:1043400015900120FEF7CCFB2E480068002851D0C4
:10435000082000EB870014902B480068401C2A4975
:10436000086003AD002D44D007F00F01189840EA13
:1043700001302880244800886880FEF75FFE68606E
:1043800005F108000290002410E0BAF1000F04D0FB
:104390001CB9029840F824A007E02598016802980B
:1043A00040F824102598001D2590641C4445ECDB42
:1043B00005F1080B002406E02498005D09EB0401D8
:1043C0000BF80100641CB442F6DBC9F13C00B042BA
:1043D00004DD002009EB06010BF80100002001902C
:1043E00001AA2846149900F0D1FF08B100F093FF0C
:1043F00000BF00BF1598FEF773FB1BB0BDE8F08F40
:104400001401002020010020C00000202DE9F84FF9
:1044100000250024FDF7E9FE83460120FEF760FB3E
:1044200000BF2EE0DFF86C80002406E028191A494E
:1044300051F8200048F82400641C082CF6D3C1462B
:1044400020264FF0000A00BF002000906A46314647
:10445000484600F09BFF07461FB10620FFF7D6F93C
:1044600007E0009881440098361A0AF1010A002EEC
:10447000EAD100BFBAF1010F02D90D2000F05EF8B9
:104480000835B5F5A07FCDD35846FEF729FBBDE82A
:10449000F88F0000F0680020906200202DE9F843BA
:1044A0002248006818B9224800682049086021485D
:1044B0000068401C1F4908601F4C002C33D044F298
:1044C00002002080084600886080FEF7B7FD60602B
:1044D00016480068A0604FF47A70E0600120206107
:1044E0000020606127461825804600BF002000900C
:1044F0006A462946384600F049FF06461EB10620A6
:10450000FFF784F907E00098074400982D1A08F196
:104510000108002DEAD100BFB8F1010F02D90D202A
:1045200000F00CF800BFBDE8F88300000001002097
:1045300024000020C0000020F068002070B5044670
:10454000601E012101FA00F00B490968084090B98A
:10455000601E012101FA00F0074909680843064975
:1045600008602046FFF79AF905462A460348016885
:104570009020FFF7B7FD70BDC8000020B0000020FC
:1045800070B5044600F046FA94F9455010E0606AB0
:1045900008B9012000E0002038B904F1240001F03E
:1045A000E9FE18B100F046FC00E003E0681E45B2E9
:1045B000002DECDC00BFFF2084F8450000F054FA29
:1045C00000F028FA94F9445010E0206908B901205D
:1045D00000E0002048B904F1100001F0CBFE08B162
:1045E00000F028FC681E45B200E001E0002DECDC84
:1045F00000BFFF2084F8440000F036FA70BD0000D0
:104600002DE9F0470446002600F0F4FC5C48006801
:1046100008B9FEF719FD5B4800682040002872D1F8
:10462000D4B1083404F00700B0B104F00700C0F1C1
:104630000800044404F0070008B9012000E000204D
:1046400050B900BF502080F31188BFF34F8FBFF3E4
:104650006F8F00BF00BFFEE7002C54D04A480068AF
:10466000844250D8494F3846056801E02F462D68EE
:104670006868A04202D228680028F7D14048006844
:10468000854240D0386800F10806286838606868BC
:10469000001B10281BD905EB040808F0070008B917
:1046A000012000E0002050B900BF502080F31188A5
:1046B000BFF34F8FBFF36F8F00BF00BFFEE7686887
:1046C000001BC8F804006C604046FEF7F1FD2E495F
:1046D00068680968081A2C490860084600682C496F
:1046E0000968884203D2284800682949086025499A
:1046F00068680968084368600020286025480068E9
:10470000401C2449086076B12348006820442249AF
:1047100008600846006821490968884203D91E4894
:1047200000681E490860FFF7B5F88146FFF72AFACE
:104730001B490988084058B12EB12246314638201D
:10474000FFF762FB04E022463146E920FFF75CFBFD
:1047500001F068FE06F0070008B9012000E0002023
:1047600050B900BF502080F31188BFF34F8FBFF3C3
:104770006F8F00BF00BFFEE73046BDE8F087000046
:104780008400002098000020880000207C00002089
:104790008C00002090000020DC000020E0000020C1
:1047A00018010020001F4FF080730360001F21F0EC
:1047B00001030360001F054B036014380260001FF3
:1047C0006FF002030360203870470000B137000823
:1047D0002DE9F04105460E46144600270848D0F85A
:1047E0008410D0F88800081A07D0324629460120E4
:1047F000FDF7DEF8074604B127600020BDE8F08130
:10480000346900202DED088B84B0044601F06EFC65
:10481000039024A001F018FF064603CCCDE9010166
:104820003FE0BDF8080000EE100AF8EE400A00EE86
:10483000105A681C85B2B8EE400A9FED1D1A41EE71
:10484000000A10EE901A084602F0A2FB41EC1B0B86
:10485000B0EE4B0AF0EE6B0AFDF7CAFCB0EE40AAD0
:10486000F0EE60AA9FED130B53EC102B51EC1A0BDA
:1048700002F09AF941EC190B01F00AFF08EE100A58
:10488000BDEEC80A10EE102A0CA1304600F034FD2F
:10489000BDF808100198FCF725F8012103A800F0E5
:1048A00043FABEE76C65645F6368616E6E656C00B9
:1048B00076C8CD3B000000000000244025640000C5
:1048C0001CB501F013FC0190002000900DA001F038
:1048D000BBFE044614E0BDF80010481C80B20A4636
:1048E0000CA10090204600F007FD642302226946D7
:1048F0001148FCF7DDFE4FF4FA7101A800F014FA3C
:10490000E9E70000756172745F6368616E6E656CE3
:104910000000000075617274207461736B3B207439
:10492000696D6573206F6620657865637574696F5E
:104930006E3A2025640000002C01002001460A691F
:10494000D1E901309860D1E901035860506888428C
:1049500001D188685060002008611068401E106016
:10496000106870470146886C7047014611B10A46CD
:10497000906C00E000207047034B0360034B0B601A
:104980008023136070470000D40700203008002007
:10499000034B0360034B0B604FF48073136070474D
:1049A000300A00208C0A002000F1080141604FF01D
:1049B000FF31816000F10801C160016100210160E7
:1049C000704700210161704710B502460B685C1CFE
:1049D0000CB9106907E002F1080000E04068446883
:1049E00024689C42FAD944684C604C68A160886095
:1049F00041600A611468641C146010BD42684A601A
:104A000093688B60936859609160086103685B1CD0
:104A10000360704700BF502080F31188BFF34F8FB1
:104A2000BFF36F8F00BF0E480068401C0C49086040
:104A300008460068012812D10A480068C0B208B9C7
:104A4000012000E0002050B900BF502080F3118801
:104A5000BFF34F8FBFF36F8F00BF00BFFEE77047FC
:104A60009C00002004ED00E00D48006850B900BF34
:104A7000502080F31188BFF34F8FBFF36F8F00BFBB
:104A800000BFFEE706480068401E0549086008466A
:104A9000006820B9002080F3118800BF00BF704774
:104AA0009C0000202DE9F04105462E46002D59D0EE
:104AB000083E34462C4960680968084008B1012066
:104AC00000E0002050B900BF502080F31188BFF3F0
:104AD0004F8FBFF36F8F00BF00BFFEE7206808B99C
:104AE000012000E0002050B900BF502080F3118861
:104AF000BFF34F8FBFF36F8F00BF00BFFEE71A49B0
:104B000060680968084068B3206858BB1649606847
:104B100009688843606000F06DFA144960680968AC
:104B2000084412490860124960680968081A104967
:104B30000860FEF7AFFE0746FFF724F80D49098825
:104B4000084028B16068424229463920FFF75CF9E5
:104B50002046FEF7ADFB08480068401C0649086087
:104B600001F060FCBDE8F081980000208800002082
:104B7000DC000020180100209400002000204FF0ED
:104B8000E02108618861064800684FF47A71B0FB43
:104B9000F1F0401E4FF0E0214861072008617047A6
:104BA0002400002070B5FBF7BDFB0446102C16D383
:104BB00004F1E02090F8F05315480078854201DBBD
:104BC000012000E0002050B900BF502080F3118880
:104BD000BFF34F8FBFF36F8F00BF00BFFEE70D48DD
:104BE000006800F4E0600C490968884201D801209F
:104BF00000E0002050B900BF502080F31188BFF3BF
:104C00004F8FBFF36F8F00BF00BFFEE770BD000086
:104C1000A00000200CED00E0A400002070B50546C7
:104C20000E46002415E00D4850F8340080B90B48BA
:104C300040F8346000EBC400456031462846FFF779
:104C40001DF82B46324603210120FFF737FB02E017
:104C5000641C082CE7D300BF70BD0000B801002021
:104C6000816470472DE9F04105460E4617462C46F3
:104C7000FFF7D0FE94F94400401C10B9002084F8DE
:104C8000440094F94500401C10B9002084F8450008
:104C9000FFF7EAFEA06B28B93A46314604F124003A
:104CA00000F0EAF82046FFF76BFCBDE8F081000059
:104CB00070B5044600253CB31848006808B90120C7
:104CC00000E0002050B900BF502080F31188BFF3EE
:104CD0004F8FBFF36F8F00BF00BFFEE700F08AF970
:104CE000FEF7D8FD0646FEF74DFF0D49098808403E
:104CF00018B121467A20FFF74BF800212046FDF736
:104D0000ABFF01F08FFB05463DB94FF080500549E0
:104D10000860BFF34F8FBFF36F8F70BD600000203E
:104D20001801002004ED00E02DE9F04705460F468C
:104D30004FF0000955B900BF502080F31188BFF330
:104D40004F8FBFF36F8F00BF00BFFEE70FB1012091
:104D500000E0002050B900BF502080F31188BFF35D
:104D60004F8FBFF36F8F00BF00BFFEE7274800687B
:104D700008B9012000E0002050B900BF502080F3A6
:104D80001188BFF34F8FBFF36F8F00BF00BFFEE7E7
:104D900000F030F91E4806682868C4192868B04237
:104DA00007D92868A0420BD9B44209D94FF00109AC
:104DB00006E02868A04201D8B44201D94FF00109A9
:104DC0002C60B9F1000F10D0FEF764FD8246FEF7AB
:104DD000D9FE10490988084018B121467920FEF70C
:104DE000D7FFA01B0021FDF737FF01F01BFB80461A
:104DF000B8F1000F07D14FF0805007490860BFF3AA
:104E00004F8FBFF36F8FBDE8F08700006000002078
:104E10003C0000201801002004ED00E0034909686F
:104E2000016003490968416070470000500000209C
:104E30003C00002001200149086070474C00002020
:104E400070B504460D4654B900BF502080F3118858
:104E5000BFF34F8FBFF36F8F00BF00BFFEE7054862
:104E6000016818312046FFF7AFFD01212846FDF704
:104E7000F3FE70BD280000202DE9F04106460C46E7
:104E8000154656B900BF502080F31188BFF34F8FED
:104E9000BFF36F8F00BF00BFFEE70F4801681831F6
:104EA0003046FFF7ABFD0DB14FF0FF34FEF7F2FCDB
:104EB0000746FEF767FE09490988084028B10848F7
:104EC000006801197920FEF763FF29462046FDF7A7
:104ED000C3FEBDE8F081000028000020180100207A
:104EE0003C00002008B102469164704730B587B09D
:104EF00000200690059004AA05A906A8FFF73CFD2E
:104F00000022DDE905101346CDE9002102902FA112
:104F10003048049A01F076F82F4908600846006886
:104F200008B1012400E00024012C02D101F008FBAB
:104F30000446012C36D100BF502080F31188BFF306
:104F40004F8FBFF36F8F00BF4FF0FF3023490860D2
:104F500001202349086000202249086001202249DD
:104F60000860FEF797FC0546FEF70CFE1F4909880E
:104F7000084088B1FEF788FC1D49096888420BD0BB
:104F80001B480068FEF7E2FE19480068C26A18482C
:104F900001683720FEF738FF02201349086000F04F
:104FA00005FA10E0601C08B1012000E0002050B9B3
:104FB00000BF502080F31188BFF34F8FBFF36F8F76
:104FC00000BF00BFFEE707B030BD000049444C45BC
:104FD00000000000C53000085C00002058000020E0
:104FE000440000203C0000201C010020180100208B
:104FF0002800002002480068401C014908607047F2
:105000006000002010B52E48006818B101202D491D
:10501000086054E000202B4908602B4801680CE030
:1050200051B900BF502080F31188BFF34F8FBFF3F9
:105030006F8F00BF00BFFEE7491E01EB8100234ACE
:1050400052F8200008B9012000E000200028E7D134
:1050500001EB81021D4B03EB820042685268426003
:1050600000F108024368934202D1426852684260EC
:105070004268D268164B1A60134801600120154936
:105080000860FEF707FC0446FEF77CFD124909881C
:10509000084088B1FEF7F8FB0D49096888420BD03B
:1050A0000B480068FEF752FE09480068C26A0848CB
:1050B00001683720FEF7A8FE02200649086010BDEF
:1050C000600000204C00002040000020F80100207B
:1050D000280000201C0100201801002030B587B0F6
:1050E00004460020069000F085F834480068002847
:1050F00028D141F28833324A32A100900120FCF7D6
:1051000003FC00202023314A31A100900120FCF74C
:10511000A7FB31A001F098FA3149086031483249C3
:1051200001220023CDE900210290120228A12F487C
:1051300000F068FF214908600846006810B90520A2
:10514000FEF764FB022C26D100BF0020069006AAC1
:10515000082104A8FFF73CFB054615B10B20FFF71B
:10516000EDF99DB90698082810D104A8FEF71CF99E
:1051700060B19DF81000012805D19DF811000128AB
:1051800001D1FEF709FD04A8FEF730F918480068C0
:105190000028DAD00FE0012C0AD1FEF7FDFC012037
:1051A0008DF810008DF8110004A8FEF71FF902E039
:1051B0000CB9FEF7F1FC07B030BD0000A8000020DC
:1051C000E84E0020547A446174610000706200204F
:1051D000547A4374726C000023574652000000005A
:1051E000B00000208C4E00208C4A0020211D0008B9
:1051F0002001002000202949096801B170470021E1
:10520000274A1160274A1160274A1160274A116016
:10521000274A11604FF6FF71264A11800121264A64
:1052200011800021254A1160254A1160254A11602C
:10523000254A1160254A1160254A1160254A1160EE
:10524000254A1160254A1160002004E00021244A0B
:1052500042F82010401CB0F5A07FF7D30021214A6E
:105260001160002004E000211F4A42F82010401C79
:105270005028F8D300211D4A1160002004E00021CD
:105280001B4A42F82010401C0828F8D3FF21194A75
:1052900011700121014A116000BFAFE72401002015
:1052A0002001002008010020100100200C01002036
:1052B00014010020180100201A0100201C01002008
:1052C000FC0000200001002004010020C800002094
:1052D000D8000020F8000020DC000020E0000020C2
:1052E00090620020CC00002090670020D0000020B9
:1052F000D0680020D40000200FB438B5044606A8BA
:1053000000902046009A059900F00AF800200090CD
:1053100038BC5DF814FB10B50020FEF7C9F910BDCC
:105320002DE9F74183B007460D46002400264FF0D3
:10533000900800BF0EE0285D252809D1601C285C7C
:1053400000B906E0601C285C252800D0761C641C8F
:1053500000BF641C285D08B1342CECDB07B1761C5F
:10536000B044B8F5805F05DB0120FEF74FFA06B0C8
:10537000BDE8F08105981FFA88F123463A46CDE949
:1053800000503046FEF7B8FF00BFF0E72DE9F041CE
:1053900005460E461446324629460120FCF770FBAE
:1053A000074604B127600020BDE8F0811CB55C48C9
:1053B00000685C49884201D0012000E0002050B91B
:1053C00000BF502080F31188BFF34F8FBFF36F8F62
:1053D00000BF00BFFEE7524800685249491E88429C
:1053E00001D0012000E0002050B900BF502080F320
:1053F0001188BFF34F8FBFF36F8F00BF00BFFEE771
:105400004949084600780190FF200A461070084676
:10541000007800909DF8000000F0F0009DF800205A
:10542000904201D1012000E0002050B900BF50207F
:1054300080F31188BFF34F8FBFF36F8F00BF00BFA2
:10544000FEE79DF8000000F05000384A1070072079
:10545000374A106009E036480068401E344A106040
:105460009DF800004006000E00909DF8000000F03E
:1054700080008028EFD02E480068C0F10700042883
:1054800001D1012000E0002050B900BF502080F37E
:105490001188BFF34F8FBFF36F8F00BF00BFFEE7D0
:1054A00023480068C0F10700042801D1012000E072
:1054B000002050B900BF502080F31188BFF34F8FF8
:1054C000BFF36F8F00BF00BFFEE7194800680002FE
:1054D000174A10601046008800F4E0601060124A1D
:1054E000019810700E482030006840F470000C499C
:1054F000203108600846006840F070400860FFF7FF
:105500003DFB00200B490860FAF7D4FE0A4800680A
:1055100040F0404008490860FAF7B8FE00201CBD82
:1055200000ED00E071C20F4100E400E0A0000020A7
:10553000A40000209C00002034EF00E010B500BF64
:10554000502080F31188BFF34F8FBFF36F8F00BFE0
:1055500000F0D2FD18B14FF080500449086000BF40
:10556000002080F3118800BF10BD000004ED00E0B2
:105570002DE9F84F06460F4690461D46DDF8289067
:105580000EB1012000E0002050B900BF502080F390
:105590001188BFF34F8FBFF36F8F00BF00BFFEE7CF
:1055A0000DB1012000E0002050B900BF502080F371
:1055B0001188BFF34F8FBFF36F8F00BF00BFFEE7AF
:1055C000B8F1000F00D00FB1012000E0002050B969
:1055D00000BF502080F31188BFF34F8FBFF36F8F50
:1055E00000BF00BFFEE7B8F1000F00D10FB90120E6
:1055F00000E0002050B900BF502080F31188BFF3B5
:105600004F8FBFF36F8F00BF00BFFEE750200090A9
:105610000098502801D1012000E0002050B900BFBF
:10562000502080F31188BFF34F8FBFF36F8F00BFFF
:1056300000BFFEE700BF2C4654B1012084F84600AD
:105640004B464246394630460094FDF74FFD2BE06D
:10565000FEF720F98246FEF795FA154909880840B9
:1056600010B3B9F1000F09D0B9F1010F11D0B9F1A0
:10567000030F09D0B9F1040F15D10FE03246002114
:105680004120FEF7C1FB0EE000214220FEF780FB27
:1056900009E000214320FEF77BFB04E000214720C6
:1056A000FEF776FB00BF00BF2046BDE8F88F000084
:1056B0001801002070B505460E462C4654B900BFAF
:1056C000502080F31188BFF34F8FBFF36F8F00BF5F
:1056D00000BFFEE7FFF79EF9D4E90F12206801FB37
:1056E0000200A0600020A06320686060E06B401EA4
:1056F000226C216800FB0211E160FF2084F8440065
:1057000084F845009EB9206908B9012000E0002016
:10571000A8B904F1100000F02DFE80B14FF08050C8
:1057200009490860BFF34F8FBFF36F8F07E004F1A3
:105730001000FFF739F904F12400FFF735F9FFF7FE
:1057400093F9012070BD000004ED00E02DE9FF4752
:1057500082B0064688461D464FF00009344654B9CB
:1057600000BF502080F31188BFF34F8FBFF36F8FBE
:1057700000BF00BFFEE7B8F1000F01D1206C08B9EF
:10578000012000E0002050B900BF502080F31188B4
:10579000BFF34F8FBFF36F8F00BF00BFFEE7022D37
:1057A00002D1E06B012801D1012000E0002050B9B6
:1057B00000BF502080F31188BFF34F8FBFF36F8F6E
:1057C00000BF00BFFEE700F081FC08B9049808B9EB
:1057D000012000E0002050B900BF502080F3118864
:1057E000BFF34F8FBFF36F8F00BF00BFFEE700BF57
:1057F000FFF710F9A06BE16B884201D3022D5BD15A
:10580000FEF748F88246FEF7BDF99F49098808402F
:1058100048B32046FEF7ACF99B490988084010B30D
:1058200094F84C0005281DD2DFE800F003160F0E97
:105830001700A16B4A1C0DB9502100E0C021084699
:105840002146FEF7E1FA0DE000BFA06B421C2146A5
:105850005120FEF7D9FA05E000BF21465220FEF79D
:1058600097FA00BF00BF2A4641462046FDF76BFB72
:105870000746606A08B9012000E0002068B904F119
:10588000240000F077FD88B14FF080507F49086018
:10589000BFF34F8FBFF36F8F08E03FB14FF08050E1
:1058A0007A490860BFF34F8FBFF36F8FFFF7DCF8C3
:1058B000012006B0BDE8F0870498A0BBFFF7D4F83C
:1058C000FDF7E8FF8246FEF75DF96F490988084059
:1058D00038B32046FEF74CF96B490988084000B3FD
:1058E00094F84C0005281BD2DFE800F003140E0DDD
:1058F0001500A26B0DB9532100E0C12108462146D5
:10590000FEF782FA0CE000BFA26B21465420FEF79E
:105910007BFA05E000BF21465520FEF739FA00BFAB
:1059200000BF0020C5E7FFE7B9F1000F04D16846CA
:10593000FFF774FA4FF00109FFF796F8FFF75AFBEB
:10594000FFF768F894F94400401C10B9002084F86F
:10595000440094F94500401C10B9002084F845002B
:10596000FFF782F804A9684600F0D4FAE8BB2046A5
:10597000FDF70BFDD0B3FDF78DFF8246FEF702F970
:1059800041490988084038B32046FEF7F1F83E49FE
:105990000988084000B394F84C0005281BD2DFE8C2
:1059A00000F003140E0D1500A26B0DB9562100E096
:1059B000C22108462146FEF727FA0CE000BFA26B81
:1059C00021465720FEF720FA05E000BF2146582067
:1059D000FEF7DEF900BF00BF04F110000499FFF7E5
:1059E0002FFA2046FEF7CCFD01E014E00DE000F0B8
:1059F00019FD00287FF4FCAE4FF080502349086069
:105A0000BFF34F8FBFF36F8FF2E62046FEF7B8FD6E
:105A100000F008FDECE62046FEF7B2FD00F002FDC6
:105A2000FDF738FF8246FEF7ADF8174909880840B0
:105A300038B32046FEF79CF813490988084000B3A4
:105A400094F84C0005281BD2DFE800F003140E0D7B
:105A50001500A26B0DB9532100E0C1210846214673
:105A6000FEF7D2F90CE000BFA26B21465420FEF7EE
:105A7000CBF905E000BF21465520FEF789F900BFAC
:105A800000BF002015E700001801002004ED00E031
:105A90002DE9F84F07468A4690461D463C4654B9C4
:105AA00000BF502080F31188BFF34F8FBFF36F8F7B
:105AB00000BF00BFFEE7BAF1000F01D1206C08B9AA
:105AC000012000E0002050B900BF502080F3118871
:105AD000BFF34F8FBFF36F8F00BF00BFFEE7022DF4
