:020000040800F2
:10000000A090002439040008555400081B52000831
:10001000515400086F07000895890008000000008F
:10002000000000000000000000000000790300084C
:10003000930B000800000000D5030008E9590008F0
:100040005304000853040008530400085304000834
:100050005304000853040008530400085304000824
:100060005304000853040008530400087D080008E6
:100070008D080008530400085304000853040008C6
:1000800053040008530400085304000853040008F4
:1000900053040008530400085304000853040008E4
:1000A00053040008530400085304000853040008D4
:1000B000FD5B0008530400085304000853040008C3
:1000C00053040008530400085304000853040008B4
:1000D00053040008530400085304000853040008A4
:1000E00053040008530400080000000053040008F3
:1000F0005304000853040008530400085304000884
:100100005304000853040008530400085304000873
:100110005304000853040008530400085304000863
:100120005304000853040008530400085304000853
:100130005304000853040008530400085304000843
:1001400000000000000000000000000000000000AF
:100150005304000853040008530400085304000823
:100160005304000853040008530400085304000813
:100170005304000853040008530400080000000062
:1001800053040008530400085304000853040008F3
:1001900053040008530400085304000853040008E3
:1001A00053040008530400085304000853040008D3
:1001B00053040008530400085304000853040008C3
:1001C00053040008530400085304000853040008B3
:1001D000530400085954000853040008530400084D
:1001E0005304000853040008530400085304000893
:1001F0005304000853040008530400085304000883
:100200005304000853040008530400085304000872
:100210005304000853040008530400085304000862
:1002200053040008530400085304000800000000B1
:1002300053040008530400080000000053040008A1
:100240005304000853040008530400085304000832
:100250005304000853040008530400085304000822
:100260005304000853040008530400085304000812
:100270005304000853040008530400080000000061
:100280005304000853040008530400080000000051
:10029000000000005304000800F002F800F05CF8D1
:1002A0000AA090E8000C82448344AAF10107DA45D1
:1002B00001D100F051F8AFF2090EBAE80F0013F0C7
:1002C000010F18BFFB1A43F00103184790AE00005E
:1002D000B0AE00000A444FF0000C10F8013B13F0E0
:1002E000070408BF10F8014B1D1108BF10F8015B8F
:1002F000641E05D010F8016B641E01F8016BF9D182
:1003000013F0080F1EBF10F8014BAD1C0C1B09D1D8
:100310006D1E58BF01F801CBFAD505E014F8016B4A
:1003200001F8016B6D1EF9D59142D6D370470000DC
:100330000023002400250026103A28BF78C1FBD8EE
:10034000520728BF30C148BF0B6070471FB50AF085
:10035000CCFE1FBD10B510BD00F0D0F91146FFF75F
:10036000F5FF08F03FFB00F0EEF903B4FFF7F2FFF2
:1003700003BC00F0F5F900002C4B19680868B0E8E0
:10038000F04F80F30988BFF36F8F4FF0000080F3C8
:10039000118870470000000008480068006880F37A
:1003A00008884FF0000080F3148862B661B6BFF38E
:1003B0004F8FBFF36F8F00DF00BF00BF08ED00E07D
:1003C000DFF80C00016841F470010160704700BF64
:1003D00088ED00E0EFF30980BFF36F8F134B1A68CD
:1003E0001EF0100F08BF20ED108A20E9F04F1060BA
:1003F00009B44FF0500080F31188BFF34F8FBFF363
:100400006F8F0AF0EDF94FF0000080F3118809BCFE
:1004100019680868B0E8F04F1EF0100F08BFB0EC84
:10042000108A80F30988BFF36F8F7047380000246B
:10043000EFF30580704700000948804709480047EE
:10044000FEE7FEE7FEE7FEE7FEE7FEE7FEE7FEE784
:10045000FEE7FEE704480549054A064B70470000E1
:10046000015B000899020008A0800024A0900024ED
:10047000A0880024A088002453EA020C00F06980C0
:100480002DE9F04B4FF00006002B1FBFB3FA83F5A8
:1004900003FA05F424FA05F65E4012BF1643B2FAD9
:1004A00082F502FA05F4C5F120051EBF22FA05FC0B
:1004B00044EA0C04203556EA044C4FEA144418BFB1
:1004C000641C4FF000084FF00009904271EB030CE0
:1004D00039D3002919BFB1FA81F701FA07F6B0FA4A
:1004E00080F700FA07F6C7F120071EBF20FA07FCC5
:1004F00046EA0C062037B6FBF4FCA7EB0507103FD5
:1005000007F01F0BCBF120060CFA0BFB2CFA06F6BA
:1005100044BFB3460026202FA4BF5E464FF0000B19
:100520005BEA060C08BF4FF0010B19EB0B09ABFBA4
:10053000027C48EB0608C01B06FB02CC0BFB03CC7D
:1005400071EB0C01C1E70B46024641464846BDE847
:10055000F08B13B54FF000004FF00001AFF30080B7
:10056000BDE81C407047032A40F2308010F0030CB5
:1005700000F0158011F8013BBCF1020F624498BFF6
:1005800011F801CB00F8013B38BF11F8013BA2F193
:10059000040298BF00F801CB38BF00F8013B11F00E
:1005A000030300F02580083AC0F0088051F8043BAE
:1005B000083A51F804CBA0E80810F5E7121D5CBF1B
:1005C00051F8043B40F8043BAFF30080D20724BF4E
:1005D00011F8013B11F801CB48BF11F8012B24BFE2
:1005E00000F8013B00F801CB48BF00F8012B704731
:1005F00010B5203AC0F00B80B1E81850203AA0E8BE
:100600001850B1E81850A0E81850BFF4F5AF5FEAF1
:10061000027C24BFB1E81850A0E8185044BF18C9A4
:1006200018C0BDE810405FEA827C24BF51F8043B4B
:1006300040F8043B08BF7047D20728BF31F8023B9F
:1006400048BF11F8012B28BF20F8023B48BF00F833
:10065000012B704702F0FF0343EA032242EA024201
:1006600000F02CB84FF0000200B5134694469646B1
:10067000203922BFA0E80C50A0E80C50B1F12001B5
:10068000BFF4F7AF090728BFA0E80C5048BF0CC063
:100690005DF804EB890028BF40F8042B08BF7047C1
:1006A00048BF20F8022B11F0804F18BF00F8012B33
:1006B00070477047704770474FF000020429C0F040
:1006C000128010F0030C3FF4CFAFCCF1040CBCF15E
:1006D000020F18BF00F8012BA8BF20F8022BA1EBD6
:1006E0000C01FFF7C1BF5FEAC17C24BF00F8012BFA
:1006F00000F8012B48BF00F8012B7047754600F049
:100700002BF8AE4605006946534620F007008546A3
:1007100018B020B5FFF79EFEBDE820404FF0000660
:100720004FF000074FF000084FF0000B21F00701D9
:10073000AC46ACE8C009ACE8C009ACE8C009ACE81C
:10074000C0098D46704710B50446AFF300802046BF
:10075000BDE81040FFF709BE004870474080002404
:1007600001491820ABBEFEE726000200704700BF1B
:10077000FEE70346042B15D007DC7BB1012B0ED01E
:10078000022B0DD0032B12D10BE0202B0BD0212BF1
:100790000AD0222B09D0232B09D107E008E007E07B
:1007A00006E005E004E003E002E001E000E000BF55
:1007B00000BF0020704700207047000010B50022E5
:1007C0000449054806F036F80449034806F027F8BE
:1007D000002010BD1872002448650024186A002407
:1007E00070B504460D462146034806F018F8024845
:1007F00005F0F0FF002070BD4865002470B5044688
:100800000D4600200AE0225C09490B68091DCA5404
:10081000091F0968491C064A1160401C2968814269
:10082000F1D829462046034A12689047002070BD3F
:10083000046500243801002410B503460C4600214D
:10084000084610BD2DE9F04104460D4600260A4831
:10085000D0F8BC72D7F8140210B10120BDE8F081C5
:100860002A462146044805F0E5FF034806F07EF8D5
:1008700006463046F2E700004865002410B50248FD
:1008800000F0A6F910BD00000008002410B50248D1
:1008900000F09EF910BD0000780800240146374A98
:1008A0000868904249D0354A18320868904244D0CE
:1008B000324A3032086890423FD0304A48320868A5
:1008C00090423AD02D4A60320868904235D02B4A87
:1008D00078320868904230D0284A903208689042B6
:1008E0002BD0264AA8320868904226D0244A0868AD
:1008F000904222D0224A1832086890421DD0204AE5
:1009000030320868904218D01D4A48320868904238
:1009100013D01B4A6032086890420ED0184A7832D1
:100920000868904209D0164A90320868904204D074
:10093000134AA8320868904201D1012000E000204B
:10094000B0B10A78103A1823B2FBF3F000F00702B6
:100950000C4B9A5CCA65032805D90A686FF3090233
:10096000121D8A6503E00A686FF309028A6503E0D5
:10097000086820F0FF008865886D7047100002400D
:100980001004024010B1000810B502682B4C036837
:10099000A34222D0294C14340368A3421DD0274C13
:1009A00028340368A34218D0244C3C340368A34283
:1009B00013D0224C50340368A3420ED01F4C643431
:1009C0000368A34209D01D4C78340368A34204D0C5
:1009D0001A4C8C340368A34201D1012300E00023A8
:1009E0008BB10378083B1424B3FBF4F1144B03EBF5
:1009F00081030366124B8033436601F01F04012319
:100A0000A340836618E00378103B1824B3FBF4F18D
:100A10000C4B9A4204D80B4BA83B9A4200D30831A6
:100A2000094B03EB81030366074B8033436601F0F8
:100A30001F040123A340836610BD00000854025820
:100A400000580258B8040240000802400179A9B3D6
:100A5000082940D8204B02689A4222D01E4B1433FA
:100A600002689A421DD01C4B283302689A4218D063
:100A7000194B3C3302689A4213D0174B503302682B
:100A80009A420ED0144B643302689A4209D0124B3A
:100A9000783302689A4204D00F4B8C3302689A4232
:100AA00001D1012200E000224AB14A1E0B4B03EBA8
:100AB0008202C266094A4032026708E00BE04A1E21
:100AC000074B03EB8202C266054A403202674A1EA8
:100AD0000123934043677047085402580059025855
:100AE00000090240014600208A69D2B98A6A32B1FF
:100AF000012A0DD0022A03D0032A10D10EE000BF34
:100B0000CA6A02F08072B2F1807F00D1012007E052
:100B1000CA6AB2F1C07F00D1012001E000E000BF4D
:100B200036E08A69B2F5005F1BD18A6A32B1012AC8
:100B300007D0022A03D0032A11D10AE000BF012006
:100B40000EE0CA6A02F08072B2F1807F00D101200B
:100B500006E0CA6AB2F1C07F00D1012000E000BF08
:100B600016E08A6A32B1012A05D0022A04D0032A8B
:100B70000CD103E000BF00BF012008E0CA6A02F008
:100B80008072B2F1807F00D1012000E000BF00BF81
:100B90007047704772B600BFFEE7000070B50A48A4
:100BA0000468001D0568001D0668344454B108221D
:100BB0000649204604F033FB04220449103128463C
:100BC00004F02DFB70BD000000E8F11F7601002449
:100BD0002DE9F84F044600200090FE4800684FF4CD
:100BE0001651B0FBF1FAA66DD4F858803768D8F8E2
:100BF0000090F9492068884249D0F74918312068A7
:100C0000884244D0F4493031206888423FD0F249CC
:100C10004831206888423AD0EF49603120688842E4
:100C200035D0ED4978312068884230D0EA4990319A
:100C3000206888422BD0E849A8312068884226D015
:100C4000E6492068884222D0E44918312068884269
:100C50001DD0E24930312068884218D0DF49483140
:100C60002068884213D0DD496031206888420ED068
:100C7000DA4978312068884209D0D8499031206813
:100C8000884204D0D549A8312068884201D101208A
:100C900000E0002000287DD094F85C0000F01F01E7
:100CA000082088403840002868D0CB492068884216
:100CB00049D0C94918312068884244D0C6493031EA
:100CC000206888423FD0C4494831206888423AD0E1
:100CD000C14960312068884235D0BF4978312068E9
:100CE000884230D0BC499031206888422BD0BA4924
:100CF000A8312068884226D0B8492068884222D08E
:100D0000B6491831206888421DD0B4493031206876
:100D1000884218D0B14948312068884213D0AF4981
:100D20006031206888420ED0AC4978312068884212
:100D300009D0AA4990312068884204D0A749A83137
:100D40002068884204D12068006800F0040003E0B5
:100D50002068006800F0080080B12068006820F07A
:100D600004002168086094F85C0000F01F0108206E
:100D70008840B060606D40F00100606594F85C00F0
:100D800000F01F01012088403840E8B392492068F4
:100D9000884200E0B7E24BD08F4918312068884282
:100DA00046D08D4930312068884241D08A49483147
:100DB000206888423CD0884960312068884237D01A
:100DC000854978312068884232D083499031206843
:100DD00088422DD08049A8312068884228D07F4998
:100DE0002068884224D07D491831206888421FD06D
:100DF0007A493031206888421AD0784948312068D1
:100E0000884215D0754900E026E0603120688842AC
:100E10000ED0724978312068884209D06F499031EC
:100E20002068884204D06D49A8312068884204D1E6
:100E30002068406900F0800002E02068006800201F
:100E400050B194F85C0000F01F0101208840B060B0
:100E5000606D40F00200606594F85C0000F01F01D6
:100E6000042088403840E8B35B49206888424BD072
:100E7000594918312068884246D057493031206896
:100E8000884241D054494831206888423CD0524978
:100E900060312068884237D04F49783120688842D5
:100EA00032D04D499031206888422DD04A49A8312E
:100EB0002068884228D049492068884224D0474980
:100EC0001831206888421FD0444930312068884258
:100ED0001AD0424948312068884215D03F496031D4
:100EE000206800E024E088420ED03C497831206838
:100EF000884209D0394990312068884204D0374966
:100F0000A8312068884204D12068006800F00200FF
:100F100002E020680068002050B194F85C0000F006
:100F20001F0104208840B060606D40F004006065DF
:100F300094F85C0000F01F01102088403840E8B3AE
:100F400025492068884251D02349183120688842B9
:100F50004CD0214930312068884247D01E49483161
:100F60002068884242D01C496031206888423DD0C8
:100F7000194978312068884238D017499031206863
:100F8000884233D01449A831206888422ED01349B2
:100F9000206888422AD0114918312068884225D01B
:100FA0000E4930312068884220D00C4948312068F1
:100FB00088421BD009496031206800E04DE088423A
:100FC00014D006497831206888420FD00349903107
:100FD000206805E0300000241000024010040240A8
:100FE000884203D0FE492068884204D12068006806
:100FF00000F0080003E02068006800F0040060B31F
:1010000094F85C0000F01F0110208840B060206858
:10101000006800F4802080B12068006800F400209F
:1010200028B9206CC8B12046216C884715E0A06C17
:1010300098B12046A16C88470FE02068006800F452
:10104000807028B92068006820F0080021680860D6
:10105000206C10B12046216C884794F85C0000F0A9
:101060001F0120208840384000287DD0DD492068BD
:10107000884249D0DB4918312068884244D0D94998
:101080003031206888423FD0D649483120688842B4
:101090003AD0D44960312068884235D0D14978317E
:1010A0002068884230D0CF499031206888422BD0C8
:1010B000CC49A8312068884226D0C949A83920687F
:1010C000884221D0C6499039206888421CD0C44942
:1010D00078392068884217D0C14960392068884231
:1010E00012D0BF494839206888420DD0BC493039F8
:1010F0002068884208D0BA4918392068884203D04D
:10110000B7492068884204D12068006800F01000C8
:1011100003E02068006800F0020028B394F85C0047
:1011200000F01F0120208840B06094F835000428AA
:101130002DD12068006820F0160021680860206822
:10114000406920F0800021684861206C08B9A06CDB
:1011500028B12068006820F008002168086094F831
:101160005C0000F01F0100E03FE03F208840B060DD
:10117000012084F8350000BF002084F8340000BF4F
:10118000206D10B12046216D8847BDE8F88F20689A
:10119000006800F4802080B12068006800F400201E
:1011A00028B9606C08B32046616C88471DE0E06B8D
:1011B000D8B12046E16B884717E02068006800F44A
:1011C000807068B92068006820F01000216808600D
:1011D000012084F8350000BF002084F8340000BFEF
:1011E000E06B10B12046E16B8847606D00287AD033
:1011F000606D00F00100E8B3042084F835007949FF
:10120000206888424BD0774918312068884246D000
:10121000744930312068884241D072494831206891
:1012200088423CD06F4960312068884237D06D4990
:1012300078312068884232D06A49903120688842EB
:101240002DD06849A8312068884228D06449A8393F
:101250002068884223D062499039206888421ED095
:101260005F4978392068884219D05D496039206823
:10127000884200E040E012D059494839206888424D
:101280000DD0574930392068884208D05449183960
:101290002068884203D052492068884206D12068DD
:1012A000006820F001002168086005E020680068FF
:1012B00020F001002168086000BF0098401C0090E9
:1012C000504500D905E02068006800F001000028C2
:1012D000F3D100BF2068006800F0010020B10320B6
:1012E00084F8350003E00DE0012084F8350000BFEC
:1012F000002084F8340000BFE06C002802D02046B3
:10130000E16C8847D9E138492068884222D03649C3
:101310001431206888421DD0334928312068884222
:1013200018D031493C312068884213D02E495031C1
:10133000206888420ED02C4964312068884209D048
:10134000294978312068884204D027498C312068A7
:10135000884201D1012000E000200028D2D020687E
:10136000056894F85C0000F01F010420884000EA42
:101370000900D8B305F00400C0B394F85C0000F095
:101380001F0104208840C8F8040005F4004080B123
:1013900005F4803030B9A06C0028B3D02046A16C91
:1013A00088478AE1206C0028ACD02046216C884711
:1013B00083E105F02000E8BB0A492068884253D049
:1013C00008491831206888424ED0064930312068DB
:1013D000884249D0034948312068884244D006E019
:1013E000B804024010000240085402584FE0B449CB
:1013F00060312068884237D0B1497831206888420E
:1014000032D0AF499031206888422DD0AC49A83104
:101410002068884228D0AB492068884224D0A94956
:101420001831206888421FD0A64930312068884290
:101430001AD000E025E0A34948312068884213D043
:10144000A0496031206888420ED09E4978312068DA
:10145000884209D09B4990312068884204D099493C
:10146000A8312068884206D12068006820F0080072
:101470002168086005E02068006820F00400216809
:101480000860206C10B32046216C884715E194F861
:101490005C0000F01F010220884000EA0900E8B368
:1014A00005F00200D0B394F85C0000F01F010220A8
:1014B0008840C8F8040005F4004070B105F480309D
:1014C00028B9606C10B12046616C8847F5E0E06B8C
:1014D000F0B32046E16B8847EFE005F02000C0BB89
:1014E0007749206888424ED0754918312068884273
:1014F00049D0734930312068884244D0704948311E
:10150000206888423FD06E496031206888423AD0D6
:101510006B4978312068884235D000E04EE0684958
:101520009031206888422ED06549A83120688842D1
:1015300029D064492068884225D062491831206842
:10154000884220D05F493031206888421BD001E0BA
:101550006EE02DE05B4948312068884213D059493C
:101560006031206888420ED0564978312068884220
:1015700009D0544990312068884204D05149A8319B
:101580002068884206D12068006820F01400216895
:10159000086005E02068006820F00A002168086003
:1015A000012084F8350000BF002084F8340000BF1B
:1015B000E06BE8B32046E16B88477EE094F85C007E
:1015C00000F01F010820884000EA090080B305F000
:1015D000080068B33A49206888424BD0384918312E
:1015E0002068884246D0364930312068884241D050
:1015F00033494831206888423CD031496031206805
:10160000884237D02E4978312068884232D02C4920
:101610009031206888422DD02949A831206888421D
:1016200028D028492068884224D02649183100E073
:1016300043E0206888421DD022493031206888422A
:1016400018D0204948312068884213D01D496031A4
:10165000206888420ED01B4978312068884209D022
:10166000184990312068884204D01649A831206872
:10167000884206D12068006820F01C0021680860BC
:1016800005E02068006820F00E002168086094F8EA
:101690005C0000F01F0101208840C8F80400012010
:1016A000606584F8350000BF002084F8340000BF76
:1016B000E06C10B12046E16C884700BF65E5000092
:1016C00010000240100402402DE9F041044600F0F1
:1016D000B3FB804614B90120BDE8F081FE492068C3
:1016E000884249D0FC4918312068884244D0FA49E0
:1016F0003031206888423FD0F7494831206888421D
:101700003AD0F54960312068884235D0F2497831C5
:101710002068884230D0F0499031206888422BD030
:10172000ED49A8312068884226D0EC4920688842DB
:1017300022D0EA491831206888421DD0E74930316B
:101740002068884218D0E54948312068884213D083
:10175000E2496031206888420ED0E0497831206843
:10176000884209D0DD4990312068884204D0DB49A5
:10177000A8312068884201D1012000E00020002823
:1017800073D0606A00B100BF022084F8350000BF4A
:10179000002084F8340000BFCF492068884249D037
:1017A000CD4918312068884244D0CB493031206877
:1017B00088423FD0C8494831206888423AD0C6495B
:1017C00060312068884235D0C3497831206888422A
:1017D00030D0C1499031206888422BD0BE49A83111
:1017E0002068884226D0BD492068884222D0BB4963
:1017F0001831206888421DD0B849303120688842AD
:1018000018D0B64948312068884213D0B3496031B6
:10181000206888420ED0B14978312068884209D0CA
:10182000AE4990312068884204D0AC49A831206884
:10183000884206D12068006820F001002168086015
:1018400005E02068006820F00100216808600DE0D4
:1018500000F0F2FAA0EB0800052807D92020606507
:10186000032084F83500012036E76AE0206800682C
:1018700000F001000028EBD1206805689848054079
:10188000D4E9020108432169084361690843A16959
:101890000843E1690843216A08430543606A042854
:1018A00003D1D4E90B01084305438E4800686FF368
:1018B0000F00B0F1005F1DD36068292802D3606873
:1018C0002E2811D960683F2802D3606842280BD9BE
:1018D0006068472802D36068482805D960684F28A7
:1018E00004D36068522801D8012000E0002008B12C
:1018F00045F48015206805602068456925F00705D6
:10190000606A0543606A04280DD1A06A0543E06A55
:1019100048B12046FFF7E6F828B140206065012075
:1019200084F83500D8E6206845612046FEF7B6FF0A
:10193000064694F85C0000F01F013F208840B0602C
:101940009EE069492068884222D0674914312068A6
:1019500088421DD0644928312068884218D06249E5
:101960003C312068884213D05F495031206888425A
:101970000ED05D4964312068884209D05A497831D7
:101980002068884204D058498C312068884201D1AF
:10199000012000E00020E0B353492068884222D0B3
:1019A00051491431206888421DD04F4928312068A0
:1019B000884218D04C493C312068884213D04A49AB
:1019C0005031206888420ED04749643120688842EF
:1019D00009D0454978312068884204D042498C3189
:1019E0002068884201D1012000E0002000B100BF42
:1019F000022084F8350000BF002084F8340000BFC6
:101A00002068056839480540A068402802D11021A7
:101A100006E02EE0A068802801D1C10100E000218D
:101A2000E06841EAD001206941EAD001606941EAF9
:101A3000D001A06941EAD001E06941EAD001206A01
:101A400041EA101005432068056027492068401AC4
:101A50001421B0FBF1F08000E0652046FEF71EFF88
:101A6000074694F85C0000F01F0101208840786070
:101A700006E040206065032084F8350001202BE655
:101A80001549206888427FD0134918312068884260
:101A90007AD0114930312068884275D00E494831DA
:101AA0002068884270D00C496031206888426BD031
:101AB000094978312068884266D00749903120680A
:101AC000884261D00449A831206888425CD003492B
:101AD0002068884258D00BE01000024010040240F9
:101AE0003F8010FE0010005C085402580F00FEFFFB
:101AF0003B4918312068884246D039493031206846
:101B0000884241D036494831206888423CD0344927
:101B100060312068884237D0314978312068884266
:101B200032D02F499031206888422DD02C49A831DD
:101B30002068884228D02B492068884224D029492F
:101B40001431206888421FD02649283120688842F5
:101B50001AD024493C312068884215D0214950319F
:101B60002068884210D01F496431206888420BD019
:101B70001C4978312068884206D01A498C31206887
:101B8000884200E000E001D1012000E0002000B325
:101B90002046FEF7F9FEA068802801D10020606091
:101BA0002079216E0860D4E919104860606860B13E
:101BB0006068082809D82046FEF748FF0020E16E3B
:101BC0000860D4E91C10486003E00020E06620674C
:101BD000606700206065012084F8350000207BE507
:101BE000100402400854025870B5044600F024F96D
:101BF00006462546681C10B104480078054400BF1D
:101C000000F01AF9801BA842FAD370BD2C00002402
:101C1000F8B502460B4600216F4DD7E001278F40F3
:101C20001E6806EA0704002C72D01E7906F003062F
:101C3000012E04D01E7906F00306022E13D19068FF
:101C40004F000326BE40B0434F00DE68BE40304325
:101C50009060506801268E40B0431E79C6F300168E
:101C60008E40304350601E7906F00306032E09D0E3
:101C7000D0684F000326BE40B0434F009E68BE4070
:101C80003043D0601E7906F00306022E13D1CF0830
:101C900002F1200656F827004E07F70E0F26BE4029
:101CA000B0434F07FF0E1E69BE403043CF0802F11C
:101CB000200646F8270010684F000326BE40B043B8
:101CC0001E7906F003064F00BE40304310605E6888
:101CD00006F44036002E78D000BF404E366846F0FD
:101CE00002063E4F3E603E46366806F0020600960B
:101CF00000BF00BF3A4E8F0856F827008E07370FF7
:101D00000F26BE40B043374EB24202D100262EE02D
:101D10005BE0354EB24201D1012628E0334EB2429B
:101D200001D1022623E0324EB24201D103261EE049
:101D3000304EB24201D1042619E02F4EB24201D1F9
:101D4000052614E02D4EB24201D106260FE02C4E9E
:101D5000B24201D107260AE02A4EB24201D108263A
:101D600005E0294EB24201D1092600E00A268F077C
:101D70003F0FBE4030431A4E8F0846F827004FF001
:101D8000B0463068A0435E6806F4801606B1204372
:101D90004FF0B04630607068A0435E6806F40016ED
:101DA00006B120434FF0B04670606868A0435E689B
:101DB00006F4003606B1204368602868A0435E68D8
:101DC00006F4803606B120432860491C1E68CE40C8
:101DD000002E7FF423AFF8BD80000058F444025871
:101DE0000804005800000258000402580008025875
:101DF000000C025800100258001402580018025833
:101E0000001C0258002002580024025810B54269F4
:101E100021EA020302EA010443EA0443836110BD9C
:101E20000AB1816101E00B048361704701480068D9
:101E3000000C70470010005C01480068704700000B
:101E40002400002403480068034909780844014934
:101E500008607047240000242C00002410B50320E3
:101E600000F0E6F802F08AF910490968C1F303218D
:101E70000F4A515C01F01F0120FA01F40B48006881
:101E800000F00F001146085C00F01F0024FA00F07B
:101E900008490860084804600F2000F00FF808B1F6
:101EA000012010BD00F05AF80020FAE7184402584B
:101EB00040B100083400002430000024F0B58BB09D
:101EC0000446102C0AD2002221461C2000F072F891
:101ED0001C2000F05BF81D48046002E001200BB0FC
:101EE000F0BD00BF1A48006840F0010018490860C2
:101EF0000846006800F00100019000BF00BF02A981
:101F000003A802F0BBF8089E1EB902F013F90546BB
:101F100002E002F00FF945000E48B5FBF0F0471E55
:101F20004FF080400C49086040F2E7310A48C16038
:101F3000476000210161816002F039FE18B906484E
:101F400002F06EFECBE70120C9E700002800002464
:101F5000E844025840420F00F008002408B500BFD2
:101F60000948006840F00200074908600846006818
:101F700000F00200009000BF00BF00220F21901E61
:101F800000F018F808BD0000F44402580146084665
:101F900000280DDB00BF00BF00F01F0301229A40A4
:101FA00043099B0003F1E023C3F8002100BF00BFF9
:101FB00000BF70472DE9F05F80460D46164606F0DB
:101FC000EBFC074639462A46334601F00700C0F1CC
:101FD000070ABAF1040F02D94FF0040A01E0C0F178
:101FE000070AD14600F1040ABAF1070F02D24FF0F6
:101FF000000A01E0A0F1030AD4464FF0010A0AFAF0
:1020000009FAAAF1010A0AEA020A0AFA0CFA4FF0DE
:10201000010B0BFA0CFBABF1010B0BEA030B4AEAC9
:102020000B042146404606F0BFFCBDE8F09F0000CF
:1020300000BF00F00702064B19684FF6FF03194076
:10204000044B0B4343EA0221014B196000BF704768
:102050000CED00E00000FA0501460A680120C1F815
:10206000FC03002081F8F403906940F00060906167
:10207000506D024B1843506500207047030000105C
:10208000704702461068416200207047F0B5034671
:1020900015461868446A21B944EA05401E68B062D2
:1020A00019E01868806A04EB1044002208E0186800
:1020B00000F5827050F8220004EB1044501CC2B2AC
:1020C000481E9042F3D844EA0547186800F582702C
:1020D0004E1E40F826700020F0BD10B50446D4F81E
:1020E000040405F015F810BD70B504460D46C5EBA7
:1020F000C50304F13C0101EB8301CA682946D4F809
:10210000040404F04DFF70BD70B504460D46C5EBE8
:10211000C50304F5FE7101EB8301CA682946D4F8B2
:10212000040404F0AEFF70BD10B50446D4F80404F6
:1021300004F0F1FF10BD70B504460E4606F08000B5
:1021400080280AD106F00F00C0EBC00104F13C006A
:1021500000EB81050120687009E006F00F00C0EB7C
:10216000C00104F5FE7000EB81050020687006F0E8
:102170000F00287000BF94F8BC03012801D1022091
:1021800070BD012084F8BC0300BF2946206805F01B
:102190001FFD00BF002084F8BC0300BF00BFEFE7B5
:1021A00070B504460E4606F00F006168884201D9FA
:1021B000012070BD06F0800080280AD106F00F00D3
:1021C000C0EBC00104F13C0000EB81050120687008
:1021D00009E006F00F00C0EBC00104F5FE7000EB53
:1021E0008105002068700020A87006F00F0028709C
:1021F00000BF94F8BC03012801D10220D9E70120D7
:1022000084F8BC0300BF2946206805F0C3FF00BF67
:10221000002084F8BC0300BF00BFCAE7024601F0FB
:102220000F00C0EBC00302F5FE7000EB8300806975
:1022300070472DE9F04705460E4690461F464FF081
:10224000000906F0800080280AD106F00F00C0EBDC
:10225000C00105F13C0000EB81040120607009E041
:1022600006F00F00C0EBC00105F5FE7000EB810425
:102270000020607006F00F002070C4F80880E7703E
:10228000607808B12078E080022F01D10020207111
:1022900000BF95F8BC03012802D10220BDE8F087F9
:1022A000012085F8BC0300BF2146286805F09EFB8D
:1022B00000BF002085F8BC0300BF4846EEE72DE9CB
:1022C000F04104460E461746984606F00F00C0EB54
:1022D000C00104F5FE7000EB8105EF60C5F81480C5
:1022E0000020A861687006F00F002870206901289E
:1022F00000D12F6106F00F0028B9227C2946206802
:1023000005F024FE04E0227C2946206805F0D6FF73
:102310000020BDE8F08170B504460D4605F00F00C1
:102320006168884201D9012070BD05F080008028D5
:102330000AD105F00F00C0EBC00104F13C0000EB36
:1023400081060120707007E0C5EBC50104F5FE7041
:1023500000EB8106002070700120B07005F00F00C6
:10236000307000BF94F8BC03012801D10220DBE7E4
:10237000012084F8BC0300BF3146206805F051FFFE
:1023800005F00F0028B9217C04F57172206805F072
:10239000C9FE00BF002084F8BC0300BF00BFC3E734
:1023A0002DE9F04104460E461746984606F00F0008
:1023B000C0EBC00104F13C0000EB8105EF60C5F803
:1023C00014800020A8610120687006F00F002870BA
:1023D0002069012800D12F6106F00F0028B9227C66
:1023E0002946206805F0B2FD04E0227C29462068D9
:1023F00005F064FF0020BDE8F0812DE9FE4F0446A2
:1024000020680290029D206806F067F900287DD1BF
:10241000206806F0A1F908B9BDE8FE8F206806F033
:102420009BF900F00200022805D12068406900F005
:10243000020021684861206806F08EF900F0100063
:10244000102846D12068806920F01000216888613A
:102450000298D0F8209009F00F00C0EBC00104F5FD
:10246000FE7000EB810AC9F3434002281AD147F6F7
:10247000F07009EA000030B3C9F30A12DAF80C1060
:10248000029806F06EF9C9F30A11DAF80C00084454
:10249000CAF80C00C9F30A11DAF818000844CAF89F
:1024A000180010E0C9F3434006280CD1082204F5B7
:1024B0007171029806F055F9C9F30A11DAF818009B
:1024C0000844CAF818002068806940F010002168AC
:1024D0008861206806F040F900F40020B0F5002F74
:1024E00052D10026206806F007F9834649E00BF038
:1024F0000100E8B3F1B2206806F021F9804608F047
:10250000010058B1012105F5306000E03BE200EB2D
:10251000461081603146204602F0D8FF08F00800DE
:10252000082809D1082105F5306000EB46108160CC
:102530003146204602F098FF08F01000102805D11F
:10254000102105F5306000EB4610816008F0200096
:10255000202805D1202105F5306000EB4610816070
:1025600008F40050B0F5005F08D14FF4005100E0CE
:1025700004E005F5306000EB46108160761C4FEA00
:102580005B0BBBF1000FB2D1206806F0E5F800F458
:102590008020B0F5802F7DD1206806F0A3F8834617
:1025A000002687E00BF00100002874D0F1B220680B
:1025B00006F0ACF8804608F00100F0B306F00F0119
:1025C00001208840019040F634004159019821EAE9
:1025D000000040F634014851012105F5106000EB80
:1025E000461081602069012824D1C6EBC60104F1A0
:1025F0003C0000EB8100C6EBC602C16804F13C0060
:1026000000EB820080680144C6EBC60204F13C0086
:1026100000EB8200C1606EB9C6EBC60104F13C005C
:1026200000EB8100406928B904F57172012120682E
:1026300005F078FDF1B2204600E001E0FFF754FD1F
:1026400008F00800082805D1082105F5106000EB06
:102650004610816008F01000102805D1102105F502
:10266000106000EB4610816008F04000402805D162
:10267000402105F5106000EB4610816008F0020073
:1026800002280CD13146029805F0EAFF022105F537
:10269000106001E012E00AE000EB4610816008F0F3
:1026A0008000802803D13146204602F0CDFF761C01
:1026B0004FEA5B0BBBF1000F7FF474AF206806F0AC
:1026C0004BF800F00040B0F1004F1CD140F6040080
:1026D000405920F0010140F60400415194F8F40300
:1026E000012807D1002084F8F40300212046FFF7D9
:1026F000C7FC02E0204600F091FA2068406900F033
:10270000004021684861206806F026F800F4006067
:10271000B0F5006F0ED140F60800405900F00100FE
:1027200010B1204600F0D2FA2068406900F4006041
:1027300021684861206806F00FF800F00060B0F1F1
:10274000006F19D12068406900F00060216848617D
:1027500094F8F40368B9012084F8F4032068406D0C
:10276000C0F38300C4F8F80301212046FFF788FC7A
:1027700002E0204600F0AAFA206805F0EDFF00F420
:102780008050B0F5805F7ED140F60400405920F0C3
:10279000010140F6040041511021206805F060FF5E
:1027A000002732E04FF67F3105F5106000EB47104F
:1027B000816005F5106000EB4710006820F40011FF
:1027C00005F5106000EB471001604FF67F3105F50D
:1027D000306000EB4710816005F5306000EB47107A
:1027E000006820F4001105F5306000EB471001602F
:1027F00005F5306000EB4710006840F0006105F51A
:10280000306000EB471001607F1C6068B842C9D897
:1028100040F61C00405940F0011140F61C004151A7
:10282000206B70B1D5F8840840F00B01C5F884180E
:1028300040F64400405940F00B0140F6440041513D
:102840000FE040F61400405942F22B01084340F6D5
:1028500014014851081F405940F00B014FF401602A
:102860004151D5F8000820F4FE60C5F80008217C2D
:1028700004F57172206805F055FC2068406900F489
:102880008050216800E000E04861206805F064FFA6
:1028900000F40050B0F5005F17D1206805F00EF984
:1028A000206805F007FFE06001F01EFC0090227B2D
:1028B0002068009905F0D8FF204600F097F92068BD
:1028C000406900F4005021684861206805F044FF29
:1028D00000F00800082808D1204600F0A6F920687A
:1028E000406900F0080021684861206805F034FF65
:1028F00000F48010B0F5801F0AD100263146204632
:1029000000F043F82068406900F4801021684861B5
:10291000206805F021FF00F40010B0F5001F0AD177
:1029200000263146204600F039F82068406900F45E
:10293000001021684861206805F00EFF00F080401B
:10294000B0F1804F08D12046FFF7C7FB20684069EF
:1029500000F0804021684861206805F0FDFE00F02D
:10296000040004280FD12068D0F8049009F0040076
:10297000042802D12046FFF7D7FB2068406840EAD0
:1029800009002168486000BF46E570B504460D4661
:102990002946D4F8040404F029FC70BD70B504463F
:1029A0000D462946D4F8040404F038FC70BD70B517
:1029B0008AB0044614B901200AB070BD266894F8A4
:1029C000BD0328B9002084F8BC03204600F0A8F815
:1029D000032084F8BD03F06B00F4807008B9002177
:1029E0002161206805F0AAFA282204F11001684646
:1029F000FDF7FEFD94E80F0005F074F820B1022009
:102A000084F8BD030120D7E70021206805F0D9FE36
:102A1000002531E00121C5EBC50204F13C0000EBCB
:102A200082004170C5EBC50104F13C0000F8215063
:102A3000C5EBC50100EB8100C5800021C5EBC502D7
:102A400004F13C0000EB8200C170C5EBC50204F14B
:102A50003C0000EB82008160C5EBC50204F13C0044
:102A600000EB8200C160C5EBC50204F13C0000EB45
:102A700082004161681CC5B26068A842CAD80025BE
:102A80002AE00021C5EBC50204F5FE7000EB8200D0
:102A90004170C5EBC50104F5FE7000F8215000211E
:102AA000C5EBC50200EB8200C170C5EBC50204F5A1
:102AB000FE7000EB82008160C5EBC50204F5FE707C
:102AC00000EB8200C160C5EBC50204F5FE7000EBAF
:102AD00082004161681CC5B26068A842D1D8282232
:102AE00004F110016846FDF783FD94E80F0005F03E
:102AF00039F920B1022084F8BD0301205CE70020F1
:102B000084F83800012084F8BD03606A012802D1EE
:102B10002046FFF7A1FA206805F012F900204BE7E4
:102B200010B5B6B00446142131A8FDF79BFDBC21B9
:102B300002A8FDF797FD2A49206888424DD14FF43D
:102B40008020029008200B90C0210C9102210D9151
:102B500004210E9102210F91002110911291800405
:102B6000239002A800F048FB08B1FEF713F800F02C
:102B7000F7F800BF1B48006840F0010019490860E1
:102B80000846006800F00100019000BF00BF4FF44C
:102B9000C0503190022032900020339034900A20AF
:102BA000359031A91048FFF733F800BF0D480838B9
:102BB000006840F000600B4908390860084600686A
:102BC00000F00060019000BF00BF002205216520D9
:102BD000FFF7F0F96520FFF7D9F936B010BD000016
:102BE00000000840E04402580000025870B5044656
:102BF0000125E06808B9002506E0E068022801D157
:102C0000012501E0FDF7C6FF2946D4F8040404F0CD
:102C1000A4FBD4F8040404F049FB70BD10B50446CD
:102C2000D4F8040404F078FB10BD10B50446D4F8C1
:102C3000040404F07CFB10BD70B504460D4600BFD3
:102C400094F8BC03012801D1022070BD012084F852
:102C5000BC0300BF84F838502946206805F0E5FD24
:102C600000BF002084F8BC0300BF00BFEDE710B533
:102C7000044604F57171D4F8040404F085FB10BD1A
:102C800070B50446256800BF94F8BC03012801D143
:102C9000022070BD012084F8BC0300BFA06A012897
:102CA00006D1A069012803D0A86B40F48030A86346
:102CB000206805F0A5FC206805F030F800BF002072
:102CC00084F8BC0300BF00BFE3E7000010B5044672
:102CD000D4F8040404F0B5FB2068D0F8000E40F0EE
:102CE00001002168C1F8000E206A28B1034800687D
:102CF00040F006000149086010BD000010ED00E042
:102D000070B5044615480068C0F3800048B9134800
:102D1000006800F00700A04201D0012070BD002033
:102D2000FCE70E48006820F0070020430B490860CC
:102D3000FFF782F8054607E0FFF77EF8401BB0F585
:102D40007A7F01D90120E9E7044808380068C0F318
:102D500040300028F0D00020E0E700000C48025886
:102D60000348006840F08070014908607047000027
:102D70000C48025810B501F0B7F905490968C1F3CC
:102D80000211044A515C01F01F01C84010BD00004F
:102D90002044025840B1000870B50146844D2D68AA
:102DA00005F00303824D2D68C5F30530804D2D1DC0
:102DB0002D68C5F300147E4D14352D68C5F3CC0580
:102DC00015FB04F501EE105AB8EE411AF0EE410A77
:102DD00000286FD023B1012B4ED0022B6BD16BE0BA
:102DE000734D283D2D68C5F340153DB3704D283D0A
:102DF0002D68C5F3C1066F4D25FA06F201EE102AC3
:102E0000F8EE411A01EE100AB8EE411A81EE812A5D
:102E10009FED691AC0EE811A654D10352D68C5F316
:102E2000080501EE105AB8EE411A31EE811AF7EE9C
:102E3000001A31EE211A22EE010A1CE001EE100AFE
:102E4000B8EE411ADFED5D1A81EE812A9FED5A1A24
:102E5000C0EE811A564D10352D68C5F3080501EEF8
:102E6000105AB8EE411A31EE811AF7EE001A31EE1F
:102E7000211A22EE010A5BE001EE100AB8EE411AB7
:102E8000DFED4F1A81EE812A9FED4B1AC0EE811AB9
:102E9000474D10352D68C5F3080501EE105AB8EE00
:102EA000411A31EE811AF7EE001A31EE211A22EEA4
:102EB000010A3DE077E01DE001EE100AB8EE411A8C
:102EC0009FED402AC2EE011A9FED3B1A80EE812A47
:102ED000374D10352D68C5F3080501EE105AB8EED0
:102EE000411A32EE011AB7EE002A31EE021A21EE33
:102EF000810A1DE001EE100AB8EE411ADFED301A2A
:102F000081EE812A9FED2C1AC0EE811A284D1035D2
:102F10002D68C5F3080501EE105AB8EE411A31EEDE
:102F2000811AF7EE001A31EE211A22EE010A00BFD3
:102F300000BF1F4D10352D68C5F3462501EE105A10
:102F4000B8EE411AF7EE001A31EE211AC0EE011A5E
:102F5000BCEEE11A81ED001A154D10352D68C5F350
:102F6000064501EE105AB8EE411AF7EE001A31EE9E
:102F7000211AC0EE011ABCEEE11A81ED011A0C4DC6
:102F800010352D68C5F3066501EE105AB8EE411AEA
:102F9000F7EE001A31EE211AC0EE011ABCEEE11A6A
:102FA00081ED021A03E000250D604D608D6070BD5B
:102FB000284402580090D003000000460024744CBE
:102FC0000024744A0024F44A70B50146844D2D68EB
:102FD00005F00303824D2D68C5F30550804D2D1D6E
:102FE0002D68C5F300247E4D1C352D68C5F3CC0536
:102FF00015FB04F501EE105AB8EE411AF0EE410A45
:1030000000286FD023B1012B4ED0022B6BD16BE087
:10301000734D283D2D68C5F340153DB3704D283DD7
:103020002D68C5F3C1066F4D25FA06F201EE102A90
:10303000F8EE411A01EE100AB8EE411A81EE812A2B
:103040009FED691AC0EE811A654D18352D68C5F3DC
:10305000080501EE105AB8EE411A31EE811AF7EE6A
:10306000001A31EE211A22EE010A1CE001EE100ACC
:10307000B8EE411ADFED5D1A81EE812A9FED5A1AF2
:10308000C0EE811A564D18352D68C5F3080501EEBE
:10309000105AB8EE411A31EE811AF7EE001A31EEED
:1030A000211A22EE010A5BE001EE100AB8EE411A85
:1030B000DFED4F1A81EE812A9FED4B1AC0EE811A87
:1030C000474D18352D68C5F3080501EE105AB8EEC6
:1030D000411A31EE811AF7EE001A31EE211A22EE72
:1030E000010A3DE077E01DE001EE100AB8EE411A5A
:1030F0009FED402AC2EE011A9FED3B1A80EE812A15
:10310000374D18352D68C5F3080501EE105AB8EE95
:10311000411A32EE011AB7EE002A31EE021A21EE00
:10312000810A1DE001EE100AB8EE411ADFED301AF7
:1031300081EE812A9FED2C1AC0EE811A284D183598
:103140002D68C5F3080501EE105AB8EE411A31EEAC
:10315000811AF7EE001A31EE211A22EE010A00BFA1
:1031600000BF1F4D18352D68C5F3462501EE105AD6
:10317000B8EE411AF7EE001A31EE211AC0EE011A2C
:10318000BCEEE11A81ED001A154D18352D68C5F316
:10319000064501EE105AB8EE411AF7EE001A31EE6C
:1031A000211AC0EE011ABCEEE11A81ED011A0C4D94
:1031B00018352D68C5F3066501EE105AB8EE411AB0
:1031C000F7EE001A31EE211AC0EE011ABCEEE11A38
:1031D00081ED021A03E000250D604D608D6070BD29
:1031E000284402580090D003000000460024744C8C
:1031F0000024744A0024F44A2DE9F04104460025D5
:10320000A846206800F00060B0F1006F30D1606E19
:1032100048B1B0F5801F0DD0B0F5001F10D0B0F54B
:10322000401F15D113E0F948006840F40030F74919
:1032300008600FE00221201D02F062FA054609E055
:10324000022104F1240002F00DFB054602E001E03A
:10325000012500BF00BF55B9EC482430006820F4B8
:103260004010616E0843E9492431086000E0A84637
:10327000208800F48070B0F5807F2DD1606D052826
:103280001AD2DFE800F0030A10171800DF480068C0
:1032900040F40030DD49086010E00021201D02F0FC
:1032A0002FFA05460AE0002104F1240002F0DAFAC0
:1032B000054603E002E001E0012500BF00BF55B96B
:1032C000D2482430006820F00700616D0843CF49E0
:1032D0002431086000E0A846208800F40070B0F5B2
:1032E000007F33D1A06D802817D003DC40B1402887
:1032F0001CD10CE0C02817D0B0F5807F16D114E0A7
:10330000C248006840F40030C049086010E0002165
:10331000201D02F0F5F905460AE0002104F1240021
:1033200002F0A0FA054603E002E001E0012500BF3B
:1033300000BF55B9B5482430006820F4E070A16D95
:103340000843B2492431086000E0A846208800F410
:103350008060B0F5806F38D1D4F8A400B0F5800F4C
:1033600019D004DC50B1B0F5001F1DD10DE0B0F54F
:10337000C00F17D0B0F5000F16D114E0A3480068B5
:1033800040F40030A149086010E00021201D02F047
:10339000B7F905460AE0002104F1240002F062FAC0
:1033A000054603E002E001E0012500BF00BF5DB972
:1033B00096482C30006820F46000D4F8A41008432C
:1033C00092492C31086000E0A846208800F4006093
:1033D000B0F5006F38D1D4F8A800B0F1007F19D053
:1033E00004DC50B1B0F1807F1DD10DE0B0F1407F21
:1033F00017D0B0F1806F16D114E08448006840F413
:1034000000308249086010E00021201D02F078F9A8
:1034100005460AE0002104F1240002F023FA0546E3
:1034200003E002E001E0012500BF00BF5DB977487D
:103430002C30006820F0E060D4F8A81008437349ED
:103440002C31086000E0A846206800F00070B0F160
:10345000007F27D1A06CA0B1102804D0202809D06B
:1034600030280FD10CE06948006840F4003067490B
:10347000086009E00221201D02F042F9054603E040
:1034800002E001E0012500BF00BF55B95F482030D0
:10349000006820F03000A16C08435C4920310860CE
:1034A00000E0A846208800F48050B0F5805F36D157
:1034B000E06DB0F5005F19D004DC50B1B0F5805F6D
:1034C0001DD10DE0B0F5405F17D0B0F5804F16D19B
:1034D00014E04E48006840F400304C49086010E0A9
:1034E0000021201D02F00CF905460AE0002104F13C
:1034F000240002F0B7F9054603E002E001E00125EF
:1035000000BF00BF55B941482430006820F4E040B6
:10351000E16D08433D492431086000E0A846208859
:1035200000F40050B0F5005F34D1206EB0F5403F9C
:103530001DD007DC68B1B0F5803F0BD0B0F5003F7F
:1035400018D10DE0B0F5802F12D0B0F5A02F11D119
:103550000FE011E00121201D02F0D2F805460BE03A
:10356000012104F1240002F07DF9054604E003E0A6
:1035700002E001E0012500BF00BF55B92348243017
:10358000006820F4E020216E0843204924310860BF
:1035900000E0A846208800F48040B0F5804F38D184
:1035A000D4F8AC00B0F1405F1DD007DC68B1B0F1D9
:1035B000805F0BD0B0F1005F18D10DE0B0F1804F0B
:1035C00012D0B0F1A04F11D10FE011E00121201D68
:1035D00002F096F805460BE0012104F1240002F008
:1035E00041F9054604E003E002E001E0012500BFE7
:1035F00000BF6DB905482C30006820F0E040D4F8D9
:10360000AC10084301492C31086002E02C440258F8
:10361000A846208800F40040B0F5004F26D1E06EA7
:1036200098B1B0F1805F03D0B0F1005F0ED106E039
:10363000F948006840F40030F749086008E00121CB
:10364000201D02F05DF8054602E001E0012500BF03
:1036500000BF55B9F0482430006820F04050E16EBA
:103660000843ED492431086000E0A846206800F0D6
:103670008070B0F1807F27D1606CA0B1012804D0A8
:10368000022809D003280FD10CE0E348006840F479
:103690000030E149086009E00221201D02F030F805
:1036A000054603E002E001E0012500BF00BF55B977
:1036B000D9482030006820F00300616C0843D649E7
:1036C0002031086000E0A846206800F48000B0F5D2
:1036D000800F7DD1D148006840F48070CF490860E8
:1036E000FEF7AAFB064606E0FEF7A6FB801B642851
:1036F00001D9032505E0C948006800F4807000285E
:10370000F2D000BF85BBC4484430006800F440706C
:10371000B4F8B01001F44071884213D0BE48443070
:10372000006820F44077BC484430006840F48030A2
:10373000B949443108600846006820F480300860C8
:1037400008460760D4F8B000B0F5807F15D1FEF7C9
:1037500073FB064609E0FEF76FFB801B41F28831E0
:10376000884202D9032507E038E0AB4844300068BE
:10377000C0F340000028EED000BF55BB00BFB4F836
:10378000B00000F44070B0F5407F0ED1A2481C3864
:10379000006820F47C51A24AD4F8B000104041EAFD
:1037A00010109D491C39086007E09B481C380068D0
:1037B00020F47C5098491C390860974844300068D0
:1037C000B4F8B010C1F30B0108439349443101E050
:1037D00005E001E0086002E0A84600E0A846207885
:1037E00000F0010068B3A06F182819D005DC48B1BB
:1037F000082808D0102816D10BE0202811D028283E
:1038000011D10FE011E00121201D01F079FF0546E3
:103810000BE0012104F1240002F024F8054604E045
:1038200003E002E001E0012500BF00BF55B97A487E
:103830002830006820F03800A16F0843764928310D
:10384000086000E0A846207800F00200022828D195
:10385000606F062815D2DFE800F003040A11121386
:1038600011E00121201D01F04BFF05460BE0012175
:1038700004F1240001F0F6FF054604E003E002E055
:1038800001E0012500BF00BF55B96348283000683A
:1038900020F00700616F08435F492831086000E0AD
:1038A000A846207800F0040004282AD1D4F890001B
:1038B000062815D2DFE800F003040A11121311E004
:1038C0000121201D01F01CFF05460BE0012104F140
:1038D000240001F0C7FF054604E003E002E001E038
:1038E000012500BF00BF5DB94B482C30006820F0B7
:1038F0000700D4F89010084347492C31086000E0D5
:10390000A846207800F02000202836D1D4F88C007A
:10391000B0F1405F1DD007DC68B1B0F1805F0BD023
:10392000B0F1005F18D10DE0B0F1804F12D0B0F1CE
:10393000A04F11D10FE011E00021201D01F0E0FEA9
:1039400005460BE0022104F1240001F08BFF05463F
:1039500004E003E002E001E0012500BF00BF5DB923
:103960002D482830006820F0E040D4F88C1008433F
:1039700029492831086000E0A846207800F040007E
:10398000402836D1D4F89800B0F5406F1DD007DC40
:1039900068B1B0F5806F0BD0B0F5006F18D10DE0B5
:1039A000B0F5805F12D0B0F5A05F11D10FE011E04B
:1039B0000021201D01F0A4FE05460BE0022104F1C8
:1039C000240001F04FFF054604E003E002E001E0BF
:1039D000012500BF00BF5DB90F482C30006820F4FE
:1039E000E050D4F8981008430B492C31086000E0EF
:1039F000A846207800F0800080283AD1D4F89C00B6
:103A0000B0F5C04F23D00DDC98B1B0F5005F11D0F8
:103A1000B0F5804F1ED113E02C44025800480258E4
:103A2000FFFCFF0FB0F5004F12D0B0F5204F11D1C1
:103A30000FE011E00021201D01F062FE05460BE0C1
:103A4000022104F1240001F00DFF054604E003E02B
:103A500002E001E0012500BF00BF4DB9BE4800688B
:103A600020F46040D4F89C100843BB49086000E093
:103A7000A846207800F00800082817D1D4F8800064
:103A8000B0F5805F07D1022104F1240001F0EAFEC5
:103A900008B14FF00108B048001F006820F4405002
:103AA000D4F880100843AC49091F0860207800F062
:103AB0001000102815D1D4F89400B0F5807F07D1FC
:103AC000022104F1240001F0CDFE08B14FF00108FD
:103AD000A148006820F44070D4F8941008439E492F
:103AE0000860206800F40020B0F5002F26D1D4F83B
:103AF000A00030B1B0F5803F09D0B0F5003F0ED145
:103B00000CE00021201D01F0FBFD054609E002212B
:103B100004F1240001F0A6FE054602E001E00125C3
:103B200000BF00BF4DB98C48006820F44030D4F885
:103B3000A01008438849086000E0A846206800F407
:103B40008020B0F5802F2DD1D4F88400B0F5801FEF
:103B500006D0B0F5001F0CD0B0F5401F11D10FE01A
:103B60007D482C38006840F400307B492C390860CF
:103B700009E0012104F1240001F074FE054602E091
:103B800001E0012500BF00BF5DB97348001F006858
:103B900020F44010D4F8841008436F49091F0860CE
:103BA00000E0A846206800F48030B0F5803F24D1C2
:103BB000E06C18B1B0F5803F0FD108E066482C38B2
:103BC000006840F4003064492C39086007E00221A5
:103BD000201D01F095FD054601E0012500BF00BF55
:103BE00055B95D480C38006820F48030E16C08431A
:103BF00059490C39086000E0A846206800F00050E0
:103C0000B0F1005F07D1022104F1240001F02AFE87
:103C100008B14FF00108206800F40030B0F5003F13
:103C200027D1E06FA0B1B0F5807F06D0B0F5007F5E
:103C30000CD0B0F5407F0CD109E047482C38006823
:103C400040F4003044492C39086004E003E002E00D
:103C500001E0012500BF00BF55B93F48001F0068C3
:103C600020F44070E16F08433B49091F086000E001
:103C7000A846206800F48010B0F5801F09D13648AE
:103C80000838006820F00040216F084332490839A5
:103C90000860206800F08050B0F1805F0AD12E48A3
:103CA0004838006820F48040D4F8B41008432A490A
:103CB00048390860206800F40010B0F5001F09D1F1
:103CC00025480838006820F08070A16E084322491A
:103CD00008390860206800F08040B0F1804F11D1B1
:103CE00000BF1D484838006820F400401A49483990
:103CF000086008460068D4F8B810084316494839E7
:103D0000086000BF206800F00040B0F1004F09D10A
:103D100011480C38006820F04050216D08430E49CE
:103D20000C390860206800F40000B0F5000F0AD1DB
:103D30000948001F006820F44000D4F888100843A8
:103D40000549091F0860B8F1000F02D10020BDE845
:103D5000F0810120FBE70000584402582DE9F041B2
:103D600004460D4614B90120BDE8F081BD48006845
:103D700000F00F00A8420ED2BA48006820F00F00F1
:103D80002843B84908600846006800F00F00A842C0
:103D900001D00120E8E7207800F0040004280ED1CB
:103DA000B1492069096801F07001884207D9AE481D
:103DB000006820F0700021690843AB490860207852
:103DC00000F00800082811D1A749091D6069096899
:103DD00001F07001884209D9A348001D006820F055
:103DE000700061690843A049091D0860207800F04F
:103DF0001000102811D19C49091DA069096801F41F
:103E0000E061884209D99848001D006820F4E0600C
:103E1000A16908439449091D0860207800F020003A
:103E2000202811D190490831E069096801F070013A
:103E3000884209D98C480830006820F07000E16998
:103E40000843894908310860207800F00200022800
:103E50000ED18549E068096801F00F01884207D951
:103E60008148006820F00F00E16808437E4908603F
:103E7000207800F00100002850D07B48006820F432
:103E80007060A1680843784908606068022807D11B
:103E9000754818380068C0F34040F8B9012063E75E
:103EA0006068032807D1704818380068C0F3406084
:103EB000A0B9012058E76068012807D16A4818387E
:103EC0000068C0F3002048B901204DE76648183863
:103ED0000068C0F3800008B9012045E7624808384F
:103EE000006820F00700616808435F4908390860EE
:103EF000FDF7A2FF064608E0FDF79EFF801B41F29A
:103F00008831884201D903202EE7574808380068D5
:103F100000F038006168B0EBC10FEDD1207800F0FF
:103F2000020002280ED15049E068096801F00F0133
:103F3000884207D24C48006820F00F00E16808432F
:103F4000494908604748006800F00F00A8420ED9B0
:103F50004448006820F00F002843424908600846A2
:103F6000006800F00F00A84201D00120FCE6207894
:103F700000F0040004280ED13B492069096801F0D3
:103F80007001884207D23848006820F0700021692B
:103F9000084335490860207800F00800082811D14E
:103FA0003149091D6069096801F07001884209D230
:103FB0002D48001D006820F07000616908432A49FF
:103FC000091D0860207800F01000102811D1264942
:103FD000091DA069096801F4E061884209D22248FC
:103FE000001D006820F4E060A16908431E49091D16
:103FF0000860207800F02000202811D11A490831EB
:10400000E069096801F07001884209D21648083059
:10401000006820F07000E169084313490831086026
:1040200000F0ACF810490968C1F303210F4A515C54
:1040300001F01F0120FA01F70B48006800F00F00A3
:104040001146085C00F01F0027FA00F008490860DC
:104050000848076008480068FDF730FF8046404682
:1040600082E60000002000521844025840B10008C7
:104070003400002430000024280000243F22026085
:10408000174A126802F007024260154A08321268A5
:1040900002F470628260124A0832126802F00F0263
:1040A000C2600F4A0832126802F0700202610C4AC4
:1040B0000C32126802F070024261094A0C32126836
:1040C00002F4E0628261064A1032126802F0700265
:1040D000C261044A126802F00F020A6070470000D1
:1040E000104402580020005210B500F047F80D4966
:1040F0000968C1F303210C4A515C01F01F0120FA49
:1041000001F40848006800F00F001146085C00F058
:104110001F0024FA00F005490860054804600846BD
:10412000006810BD1844025840B100083400002453
:104130003000002400B5FFF7D7FF05490968C1F337
:104140000211044A515C01F01F01C84000BD00008B
:104150001C44025840B1000800B5FFF7C5FF0549EF
:104160000968C1F30221044A515C01F01F01C840F3
:1041700000BD00001C44025840B10008F0B5824E5A
:10418000366806F0380636B1082E15D0102E15D038
:10419000182E7DD114E07C4E103E3668C6F34016D2
:1041A00046B1794E103E3668C6F3C107774E26FAFF
:1041B00007F000E07548E5E07548E3E07548E1E0A8
:1041C000714E1836366806F003046F4E183636689E
:1041D000C6F305116C4E1C36366806F001056A4EB2
:1041E00024363668C6F3CC0616FB05F601EE106AD7
:1041F000B8EE410A002971D024B1012C50D0022C14
:104200006DD16DE0604E103E3668C6F340163EB389
:104210005D4E103E3668C6F3C1075C4E26FA07F3C2
:1042200001EE103AF8EE411A01EE101AB8EE411AFA
:1042300081EE812A9FED581AC0EE011A524E2036A7
:104240003668C6F3080601EE106AB8EE411A31EE80
:10425000811AF7EE001A31EE211A62EE010A1EE011
:1042600001EE101AB8EE411ADFED4C1A81EE812AE8
:104270009FED491AC0EE011A434E20363668C6F348
:10428000080601EE106AB8EE411A31EE811A00E01C
:1042900076E0F7EE001A31EE211A62EE010A5BE0D9
:1042A00001EE101AB8EE411A9FED3D2AC2EE011A36
:1042B0009FED391A80EE012A334E20363668C6F358
:1042C000080601EE106AB8EE411A32EE011AB7EE96
:1042D000002A31EE021A61EE810A3DE04EE01DE057
:1042E00001EE101AB8EE411ADFED2E1A81EE812A86
:1042F0009FED291AC0EE011A234E20363668C6F308
:10430000080601EE106AB8EE411A31EE811AF7EE96
:10431000001A31EE211A62EE010A1DE001EE101AB8
:10432000B8EE411A9FED1E2AC2EE011A9FED1A1A2D
:1043300080EE012A144E20363668C6F3080601EED8
:10434000106AB8EE411A32EE011AB7EE002A31EEC9
:10435000021A61EE810A00BF00BF0B4E203636689C
:10436000C6F34626721C01EE102AB8EE411AC0EEC2
:10437000811ABCEEE11A11EE100A00E0002001E003
:10438000034800BF00BFF0BD104402580090D003A6
:1043900000093D0000127A00000000460024744C21
:1043A0000024744A0024F44A2DE9F047044614B965
:1043B0000120BDE8F087207800F00100002870D0CF
:1043C000FA48006800F03808F8481830D0F8009033
:1043D000B8F1100F06D0B8F1180F0FD109F0030093
:1043E00002280BD1F14810380068C0F34040002883
:1043F0006AD06068002867D10120DAE700BF6068F2
:10440000B0F5803F08D1E9481038006840F48030AA
:10441000E649103908602EE0606868B9E348103852
:10442000006820F48030E1491039086008460068CF
:1044300020F4802008601EE06068B0F5A02F0DD148
:10444000DA481038006840F48020D84910390860F4
:104450000846006840F4803008600CE0D34810380B
:10446000006820F48030D14910390860084600689F
:1044700020F48020086000BF606898B1FDF7DCFC84
:10448000054606E0FDF7D8FC401B642801D903204F
:104490008FE7C64810380068C0F340400028F1D0CC
:1044A00012E012E0FDF7C8FC054606E0FDF7C4FC8B
:1044B000401B642801D903207BE7BC481038006802
:1044C000C0F340400028F1D100BF207800F0020086
:1044D000022874D1B548006800F03808B348183095
:1044E000D0F80090B8F1000F05D0B8F1180F56D1F0
:1044F00009F00300D0BBAD4810380068C0F380005D
:1045000018B1E06808B9012053E7A84810380068DE
:1045100020F01900E1680843A44910390860FDF74C
:104520008BFC054606E0FDF787FC401B022801D9FD
:1045300003203EE79D4810380068C0F38000002843
:10454000F1D000BFFDF772FC41F2030188421AD896
:10455000206940280BD195480C38006820F47C3045
:1045600040F4003091490C39086017E017E08F489B
:104570000C38006820F47C30216940EA01308B4916
:104580000C3908600AE089480C38006820F0FE40C9
:10459000217C40EA016085490C39086066E0E068EA
:1045A00088B382481038006820F01900E168084399
:1045B0007E4910390860FDF73FFC054607E056E0EC
:1045C000FDF73AFC401B022801D90320F1E67748A9
:1045D00010380068C0F380000028F1D000BFFDF75C
:1045E00025FC41F2030188421AD8206940280BD1EA
:1045F0006E480C38006820F47C3040F400306B4981
:104600000C39086017E017E068480C38006820F49F
:104610007C30216940EA013064490C3908600AE0C5
:1046200062480C38006820F0FE40217C40EA0160BE
:104630005E490C39086019E05C481038006820F0C9
:1046400001005A4910390860FDF7F6FB054606E0FF
:10465000FDF7F2FB401B022801D90320A9E65348CD
:1046600010380068C0F380000028F1D100BF207826
:1046700000F0100010287CD14C48006800F0380889
:104680004A481830D0F80090B8F1080F06D0B8F1B9
:10469000180F3DD109F00300012839D143481038E3
:1046A0000068C0F3002020B1E069802801D001201B
:1046B0007FE600BFFDF7BAFB41F2030188421AD83A
:1046C000206A20280AD139480C38006820F0F840C8
:1046D00040F0804035490C39086018E033480C3808
:1046E000006820F0F84094F8201040EA81602F49DB
:1046F0000C3908600BE02D48001F006820F07C504A
:1047000094F8201040EA01602849091F086066E01B
:10471000E06978B325481038006840F080002349EC
:1047200010390860FDF788FB054606E0FDF784FBBD
:10473000401B022801D903203BE61C4810380068C2
:10474000C0F300200028F1D000BFFDF76FFB41F25D
:10475000030188421CD8206A20280CD113480C3849
:10476000006820F0F84040F0804010490C390860A3
:104770001AE035E01CE00D480C38006820F0F840E5
:1047800094F8201040EA816008490C3908600BE079
:104790000648001F006820F07C5094F8201040EA82
:1047A00001600249091F086019E000001044025826
:1047B000FA48006820F08000F8490860FDF73CFBEB
:1047C000054606E0FDF738FB401B022801D903200F
:1047D000EFE5F2480068C0F300200028F2D100BFE6
:1047E000207800F00800082836D16069D0B1EB4885
:1047F0007430006840F00100E84974310860FDF74A
:104800001BFB054606E0FDF717FB401B022801D9FC
:104810000320CEE5E14874300068C0F34000002872
:10482000F1D019E0DD487430006820F00100DB4968
:1048300074310860FDF700FB054606E0FDF7FCFA61
:10484000401B022801D90320B3E5D4487430006826
:10485000C0F340000028F1D1207800F0200020288B
:1048600030D1A069B8B1CD48006840F48050CB4940
:104870000860FDF7E1FA054606E0FDF7DDFA401BAA
:10488000022801D9032094E5C4480068C0F34030F1
:104890000028F2D016E0C148006820F48050BF49DB
:1048A0000860FDF7C9FA054606E0FDF7C5FA401BAA
:1048B000022801D903207CE5B8480068C0F34030E5
:1048C0000028F2D1207800F0040004287DD1B448FB
:1048D000006840F48070B2490860FDF7ADFA054603
:1048E00006E0FDF7A9FA401B642801D9032060E522
:1048F000AB48006800F480700028F2D000BFA068C8
:10490000012808D1A5487030006840F00100A34993
:10491000703108602DE0A06868B9A0487030006868
:1049200020F001009D49703108600846006820F0C1
:10493000040008601DE0A06805280DD1974870307C
:10494000006840F00400954970310860084600682E
:1049500040F0010008600CE090487030006820F0E2
:1049600001008E49703108600846006820F004009C
:10497000086000BFA068A0B1FDF75EFA054608E038
:10498000FDF75AFA401B41F28831884201D90320D1
:104990000FE5824870300068C0F340000028EFD077
:1049A00013E0FDF749FA054608E0FDF745FA401B1C
:1049B00041F28831884201D90320FAE47748703007
:1049C0000068C0F340000028EFD1606A00287DD065
:1049D00072481030006800F03800182877D0606AFC
:1049E000022875D16D48006820F080706B4908601E
:1049F000FDF722FA054606E0FDF71EFA401B0228E5
:104A000001D90320D5E465480068C0F34060002860
:104A1000F2D100BFD4E90A1041EA00105F49283101
:104A2000096840F2F332914308435C492831086039
:104A3000208E401EC0F30800616B491E4FF47E4279
:104A400002EA41210843218F491ED20102EA0141B5
:104A500008433C21095D491E120202EA0161084334
:104A60004E493031086000BF081F006820F0010087
:104A7000091F08604948343000684FF6F8718843D0
:104A8000A16C40EAC10045493431086043482C30EC
:104A9000006820F00C00216C084340492C3108606C
:104AA0000846006820F00200616C08433B492C3145
:104AB00008600846006840F48030086008460068D6
:104AC00040F4003008600846006802E06AE038E020
:104AD0001FE040F4802008600846006840F00100B4
:104AE00008602E48006840F080702C490860FDF78F
:104AF000A3F9054606E0FDF79FF9401B022801D9FE
:104B0000032056E425480068C0F340600028F2D036
:104B100048E02248006820F0807020490860FDF7D6
:104B20008BF9054606E0FDF787F9401B022801D9FD
:104B300003203EE419480068C0F340600028F2D129
:104B400030E0164828300768144830300668606A3C
:104B5000012821D007F00301A06A81421CD1C7F3CC
:104B60000511E06A884217D1C6F30801206B401E88
:104B7000814211D1606B401EC6F3462188420BD1A1
:104B8000A06B401EC6F30641884205D1E06B401E73
:104B9000C6F30661884205D001200AE400440258A9
:104BA00000480258002004E470477047704710B571
:104BB00004460CB9012010BD94F83D0028B900202E
:104BC00084F83C00204600F029F8022084F83D00DB
:104BD000211D206801F01AF8012084F8480000BF68
:104BE00084F83E0001213F2001554020015541201D
:104BF0000155422001554320015500BF00BF01204F
:104C000084F84400452001554620015547200155B0
:104C100000BF012084F83D000020CCE77047000071
:104C2000014691F83D00012801D001207047022083
:104C300081F83D000868C06840F001000B68D8604A
:104C40001C4B086898421BD00868B0F1804F17D001
:104C5000194B0868984213D0184B086898420FD037
:104C6000174B086898420BD0164B0868984207D03B
:104C7000154B0868984203D0144B0868984210D12D
:104C800008688068124B00EA0302062A0FD0B2F5CA
:104C9000803F0CD00868006840F001000B68186085
:104CA00005E00868006840F001000B68186000200B
:104CB000BCE7000000000140000400400008004084
:104CC000000C00400004014000180040004001407A
:104CD00007000100704710B5044620680069C0F362
:104CE0004000D8B12068C068C0F34000B0B16FF098
:104CF000020021680861012020772068806900F0A7
:104D0000030018B12046FFF7E5FF05E0204600F05C
:104D1000BEF8204600F0BCF800202077206800692B
:104D2000C0F38000D8B12068C068C0F38000B0B183
:104D30006FF00400216808610220207720688069F4
:104D400000F4407018B12046FFF7C4FF05E020468C
:104D500000F09DF8204600F09BF8002020772068A6
:104D60000069C0F3C000D8B12068C068C0F3C000BB
:104D7000B0B16FF008002168086104202077206836
:104D8000C06900F0030018B12046FFF7A3FF05E05B
:104D9000204600F07CF8204600F07AF800202077CA
:104DA00020680069C0F30010D8B12068C068C0F363
:104DB0000010B0B16FF01000216808610820207762
:104DC0002068C06900F4407018B12046FFF782FFE8
:104DD00005E0204600F05BF8204600F059F800207E
:104DE00020772068006900F0010058B12068C06891
:104DF00000F0010030B16FF0010021680861204629
:104E000000F047F820680069C0F3C01058B120686E
:104E1000C068C0F3C01030B16FF080002168086135
:104E20002046FFF7C2FE20680069C0F3002058B199
:104E30002068C068C0F3C01030B16FF48070216882
:104E400008612046FFF7B0FE20680069C0F38010BB
:104E500058B12068C068C0F3801030B16FF04000D6
:104E600021680861204600F01DF820680069C0F341
:104E7000401058B12068C068C0F3401030B16FF0E6
:104E80002000216808612046FFF790FE10BD7047A2
:104E9000704710B504462068B0F1804F01D1FCF78F
:104EA000D1FF10BD7047014600BF91F88000012876
:104EB00001D102207047012081F8800000BF24202A
:104EC000C1F88400086802680868006820F00100E2
:104ED0000B68186022F000520020486608680260E3
:104EE0002020C1F8840000BF002081F8800000BFAE
:104EF00000BFDFE770B504460D4600BF94F88000A0
:104F0000012801D1022070BD012084F8800000BF7B
:104F10002420C4F88400206806682068006820F017
:104F20000100216808602068806820F060602843E4
:104F300021688860204600F0FBFE20680660202083
:104F4000C4F8840000BF002084F8800000BF00BFC8
:104F5000D9E770B504460D4600BF94F880000128DB
:104F600001D1022070BD012084F8800000BF242000
:104F7000C4F88400206806682068006820F00100FA
:104F8000216808602068806820F06040284321681C
:104F90008860204600F0CCFE206806602020C4F81F
:104FA000840000BF002084F8800000BF00BFD9E764
:104FB00010B504460CB9012010BDA06900B100E095
:104FC00000BFD4F8840028B9002084F8800020466F
:104FD00000F02AF82420C4F884002068006820F03B
:104FE000010021680860204600F086FF012800D1FA
:104FF000E2E7A06A10B1204600F0C6FE20684068D3
:1050000020F49040216848602068806820F02A00E1
:10501000216888602068006840F00100216808600D
:10502000204600F02DFFC7E710B5B6B004461421A6
:1050300031A8FBF717FBBC2102A8FBF713FB3B4988
:10504000206888426FD10220029000201F9002A8A1
:10505000FEF7D2F808B1FBF79DFD00BF34480068A9
:1050600040F48020324908600846006800F480203F
:10507000019000BF00BF00BF2D480838006840F015
:1050800002002B49083908600846006800F0020059
:10509000019000BF00BF4FF4406031900220329079
:1050A0000020339034900720359031A92148FCF737
:1050B000AFFD2148214908602D20486000211F488C
:1050C0008160C1604FF480610161002141618161B3
:1050D000C16101624162FCF7F7FA08B1FBF75AFDC2
:1050E00000BF1648E067846300BF134818301449B6
:1050F00008602E2048604021114881600021C16075
:105100004FF480610161002141618161C1610162EF
:105110004162FCF7D9FA08B1FBF73CFD00BF084833
:10512000A067846300BF36B010BD00000048004097
:10513000E84402580004025810000240000800240D
:10514000780800242DE9F84F04460E461746994684
:10515000D4F8840020285ED106B117B90120BDE83B
:10516000F88F00BF94F88000012801D10220F6E7F3
:10517000012084F8800000BF00205434A063212067
:105180002063FCF759FE824627806780543CA06864
:10519000B0F5805F04D1206910B90025B04602E067
:1051A00035464FF0000800BF002084F8800000BFA3
:1051B0001DE05346002280212046CDF8009001F0EA
:1051C00061F908B10320CAE745B9B8F80000C0F397
:1051D00008002168886208F1020803E02878216845
:1051E00088626D1CB4F85600401EA4F85600B4F84E
:1051F00056000028DDD15346002240212046CDF83C
:10520000009001F03FF908B10320A8E72020C4F87E
:1052100084000020A3E70220A1E700BFFEE730B52D
:105220000B46002100BF16E00A24B4EB107F05D91D
:10523000302404EB107403F8114005E0412404EB22
:1052400010740A3C03F81140000100254C00641C56
:105250001D554C1CE1B29142E6DB30BD08B500BFE4
:105260000E48006840F001000C49086008460068DC
:1052700000F00100009000BF00BF002205210B20BC
:10528000FCF798FE0B20FCF781FE002205210C2084
:10529000FCF790FE0C20FCF779FE08BDD8440258BC
:1052A00000B587B01C2206496846FBF7A1F900212A
:1052B000684603F02FFC0349086007B000BD0000FA
:1052C000F4B000082000002400B587B0142102A823
:1052D000FBF7C8F900BF2C48006840F080002A495D
:1052E00008600846006800F08000019000BF00BF21
:1052F00000BF0846006840F00200086008460068E9
:1053000000F00200019000BF00BF00BF0846006827
:1053100040F0010008600846006800F001000190BC
:1053200000BF00BF00BF0846006840F010000860E2
:105330000846006800F01000019000BF00BF002286
:1053400044F201011148FCF76BFD002202211048D4
:10535000FCF766FD44F2010002900120039000205A
:105360000490059002A90948FCF752FC0220029023
:105370000120039000200490059002A90448FCF746
:1053800047FC07B000BD0000E0440258000402588A
:105390000010025810B51848184908604FF4E13061
:1053A0004860002115488160C16001610C214161A4
:1053B00000218161C1610162416200200F49886260
:1053C0000846FFF7F5FD08B1FBF7E4FB00210B48A9
:1053D000FFF7BFFD08B1FBF7DDFB00210748FFF732
:1053E00089FD08B1FBF7D6FB0448FFF75CFD08B167
:1053F000FBF7D0FB10BD0000004800407007002400
:1054000010B500220E490F4801F087FD08B1FBF7E7
:10541000C1FB0D490B4802F051F808B1FBF7BAFB8C
:105420000A49084801F0F3F908B1FBF7B3FB054856
:1054300002F026F908B1FBF7ADFBFDF791FC10BDBA
:105440004001002448650024B40100249001002498
:1054500000BFFEE700BFFEE710B50248FCF7CDFF36
:1054600010BD0000187A00242DE9F04704460D46CF
:1054700026683746D6F8408007F5306000EB4510C7
:10548000D0F80890104880450BD909F40040B0F5D9
:10549000004F06D14FF4004107F5306000EB451096
:1054A00081602046FDF7E3FB0748804508D9206965
:1054B000012805D104F571720121206802F032FE45
:1054C0000020BDE8F08700000A30544F2DE9F04776
:1054D00005460C46D5F800804646D8F8409006F5BB
:1054E000306000EB441087682869012873D107F009
:1054F000080008280FD1524881450BD907F4004015
:10550000B0F5004F06D14FF4004106F5306000EBD6
:105510004410816091E007F02000202806D120216E
:1055200006F5306000EB4410816086E007F028004B
:1055300000280ED1424881450CD907F40040B0F54F
:10554000004F07D14FF4004106F5306000EB4410E6
:10555000816072E0C4EBC40105F5FE7000EB8100D0
:10556000816806F5306000EB44100069C0F312005A
:10557000091AC4EBC40205F5FE7000EB82008161DC
:10558000C4EBC40105F5FE7000EB8100C4EBC4025E
:10559000C16805F5FE7000EB820080680144C4EB31
:1055A000C40205F5FE7000EB8200C1606CB9C4EB6B
:1055B000C40105F5FE7000EB8100406928B905F5CE
:1055C00071720121286802F0ADFDE1B22846FCF7B6
:1055D0009BFD32E0FFE71B4881451BD107F40040EB
:1055E000B0F5004F07D14FF4004106F5306000EBF5
:1055F0004410816021E007F02000202805D12021FF
:1056000006F5306000EB44108160E1B22846FCF7FB
:105610007BFD12E06CB9C4EBC40105F5FE7000EB34
:105620008100406928B905F571720021286802F0EF
:1056300079FDE1B22846FCF767FD0020BDE8F08760
:105640000A30544F0A31544F2DE9F84F07460E46A1
:10565000D7F80090C846C6EBC60107F13C0000EB46
:105660008104D4E90510884202D90120BDE8F88FF1
:10567000D4E90501451AA068A84200D2A568E81C33
:105680004FEA900A17E0D4E90501451AA068A8423C
:1056900000D2A568E81C4FEA900A387CABB2F2B29F
:1056A00000904846E16803F053F9E0682844E06060
:1056B000A0692844A06108F5106000EB46108069DD
:1056C00080B2504506D3D4E90510884202D2606901
:1056D0000028D8D1D4E9050188420ED806F00F0180
:1056E000012000FA01FB40F6340050F8080020EADF
:1056F0000B0040F6340141F808000020B6E7000036
:105700002DE9F04104460E4600275548006800F098
:105710000300032802D10120BDE8F0815048283859
:10572000006820F080604E4928390860FCF784FB4F
:10573000054606E0FCF780FB401B022801D9032048
:10574000EAE7474828380068C0F3C0600028F1D174
:1057500000BF4348006820F47C30216840EA0130F3
:105760003F490860A088401EC0F30800A168491E98
:105770004FF47E4202EA41210843A189491ED20129
:1057800002EA01410843217C491E120202EA01613A
:10579000084333491031086000BF3148001D0068DC
:1057A00020F0C000616908432D49091D08600846C2
:1057B000006820F02000A16908432949091D0860FC
:1057C0000846006820F01000086025481430006882
:1057D0004FF6F8718843E16940EAC100204914316D
:1057E00008601F48001D006840F010001C49091D9A
:1057F00008602EB90846006840F40020086012E0F6
:10580000012E08D11648001D006840F4801014498C
:10581000091D086007E01248001D006840F40010F0
:105820000F49091D08600E482838006840F0806064
:105830000B4928390860FCF7FFFA054606E0FCF73B
:10584000FBFA401B022801D9032065E704482838E9
:105850000068C0F3C0600028F1D038465CE7000063
:10586000284402582DE9F04104460E4600275548C9
:10587000006800F00300032802D10120BDE8F08198
:1058800050482838006820F080504E492839086078
:10589000FCF7D2FA054606E0FCF7CEFA401B0228D8
:1058A00001D90320EAE7474828380068C0F3407070
:1058B0000028F1D100BF4348006820F07C702188A7
:1058C00040EA01503F490860A088401EC0F308002C
:1058D000A168491E4FF47E4202EA41210843A18992
:1058E000491ED20102EA01410843217C491E1202ED
:1058F00002EA0161084333491831086000BF3148AA
:10590000001D006820F44060616908432D49091DAD
:1059100008600846006820F40070A169084329491E
:10592000091D08600846006820F48070086025485A
:105930001C3000684FF6F8718843E16940EAC10005
:1059400020491C3108601F48001D006840F4807029
:105950001C49091D08602EB90846006840F4800003
:10596000086012E0012E08D11648001D006840F4BE
:1059700000001449091D086007E01248001D006876
:1059800040F080700F49091D08600E4828380068F3
:1059900040F080500B4928390860FCF74DFA054665
:1059A00006E0FCF749FA401B022801D9032065E70D
:1059B000044828380068C0F340700028F1D0384609
:1059C0005CE700002844025830B501460A461378C7
:1059D000521C147843EA042030BDFFF711FD00BFCC
:1059E000012003F086F8FBE710B500BF502080F3DC
:1059F0001188BFF34F8FBFF36F8F00BF05F000FA20
:105A000018B14FF080500449086000BF002080F3B7
:105A1000118800BF10BD000004ED00E000B59DB08E
:105A20004C210AA8FAF71EFE202102A8FAF71AFE56
:105A30000220FDF765F900BF002001902D480068A5
:105A400040F440402B4908600846006800F440409C
:105A500001902948006840F0010027490860084685
:105A6000006800F00100019000BF00BF00BF2148A6
:105A7000006800F40050B0F5005FF8D11F480068DE
:105A800020F00300801C1D49086001200A904FF49B
:105A9000A0200B9002201390022114910121159156
:105AA0007821169102211791189119910C211A91C0
:105AB00000211B911C910AA8FEF776FC08B1FBF7A8
:105AC00069F83F20029003200390002004900820F2
:105AD0000590402006900790000108904020099012
